{
  "contractName": "VoteFactory",
  "abi": [
    {
      "constant": true,
      "inputs": [
        {
          "name": "",
          "type": "address"
        },
        {
          "name": "",
          "type": "uint256"
        }
      ],
      "name": "ownerToVotes",
      "outputs": [
        {
          "name": "",
          "type": "uint256"
        }
      ],
      "payable": false,
      "stateMutability": "view",
      "type": "function"
    },
    {
      "constant": true,
      "inputs": [
        {
          "name": "",
          "type": "uint256"
        }
      ],
      "name": "votes",
      "outputs": [
        {
          "name": "state",
          "type": "uint8"
        },
        {
          "name": "question",
          "type": "string"
        }
      ],
      "payable": false,
      "stateMutability": "view",
      "type": "function"
    },
    {
      "constant": true,
      "inputs": [],
      "name": "owner",
      "outputs": [
        {
          "name": "",
          "type": "address"
        }
      ],
      "payable": false,
      "stateMutability": "view",
      "type": "function"
    },
    {
      "constant": true,
      "inputs": [
        {
          "name": "",
          "type": "uint256"
        }
      ],
      "name": "voteToOwner",
      "outputs": [
        {
          "name": "",
          "type": "address"
        }
      ],
      "payable": false,
      "stateMutability": "view",
      "type": "function"
    },
    {
      "constant": false,
      "inputs": [
        {
          "name": "newOwner",
          "type": "address"
        }
      ],
      "name": "transferOwnership",
      "outputs": [],
      "payable": false,
      "stateMutability": "nonpayable",
      "type": "function"
    },
    {
      "anonymous": false,
      "inputs": [
        {
          "indexed": false,
          "name": "id",
          "type": "uint256"
        },
        {
          "indexed": false,
          "name": "question",
          "type": "string"
        }
      ],
      "name": "CreateVote",
      "type": "event"
    },
    {
      "anonymous": false,
      "inputs": [
        {
          "indexed": false,
          "name": "voteId",
          "type": "uint256"
        },
        {
          "indexed": false,
          "name": "answers",
          "type": "bytes32"
        }
      ],
      "name": "AddAnswer",
      "type": "event"
    },
    {
      "anonymous": false,
      "inputs": [
        {
          "indexed": false,
          "name": "id",
          "type": "uint256"
        }
      ],
      "name": "StartVote",
      "type": "event"
    },
    {
      "anonymous": false,
      "inputs": [
        {
          "indexed": false,
          "name": "id",
          "type": "uint256"
        }
      ],
      "name": "StopVote",
      "type": "event"
    },
    {
      "anonymous": false,
      "inputs": [
        {
          "indexed": true,
          "name": "previousOwner",
          "type": "address"
        },
        {
          "indexed": true,
          "name": "newOwner",
          "type": "address"
        }
      ],
      "name": "OwnershipTransferred",
      "type": "event"
    },
    {
      "constant": false,
      "inputs": [],
      "name": "kill",
      "outputs": [],
      "payable": false,
      "stateMutability": "nonpayable",
      "type": "function"
    },
    {
      "constant": false,
      "inputs": [
        {
          "name": "_question",
          "type": "string"
        }
      ],
      "name": "createVote",
      "outputs": [],
      "payable": false,
      "stateMutability": "nonpayable",
      "type": "function"
    },
    {
      "constant": false,
      "inputs": [
        {
          "name": "_voteId",
          "type": "uint256"
        },
        {
          "name": "_answer",
          "type": "bytes32"
        }
      ],
      "name": "addAnswer",
      "outputs": [],
      "payable": false,
      "stateMutability": "nonpayable",
      "type": "function"
    },
    {
      "constant": false,
      "inputs": [
        {
          "name": "_voteId",
          "type": "uint256"
        },
        {
          "name": "_answers",
          "type": "bytes32[]"
        }
      ],
      "name": "addAnswers",
      "outputs": [],
      "payable": false,
      "stateMutability": "nonpayable",
      "type": "function"
    },
    {
      "constant": true,
      "inputs": [
        {
          "name": "_voteId",
          "type": "uint256"
        },
        {
          "name": "_answerId",
          "type": "uint256"
        }
      ],
      "name": "voteAnswer",
      "outputs": [
        {
          "name": "",
          "type": "bytes32"
        }
      ],
      "payable": false,
      "stateMutability": "view",
      "type": "function"
    },
    {
      "constant": false,
      "inputs": [
        {
          "name": "_voteId",
          "type": "uint256"
        }
      ],
      "name": "startVote",
      "outputs": [],
      "payable": false,
      "stateMutability": "nonpayable",
      "type": "function"
    },
    {
      "constant": false,
      "inputs": [
        {
          "name": "_voteId",
          "type": "uint256"
        }
      ],
      "name": "stopVote",
      "outputs": [],
      "payable": false,
      "stateMutability": "nonpayable",
      "type": "function"
    },
    {
      "constant": false,
      "inputs": [
        {
          "name": "_voteId",
          "type": "uint256"
        },
        {
          "name": "_answerId",
          "type": "uint256"
        }
      ],
      "name": "cast",
      "outputs": [
        {
          "name": "",
          "type": "uint256"
        }
      ],
      "payable": false,
      "stateMutability": "nonpayable",
      "type": "function"
    },
    {
      "constant": true,
      "inputs": [
        {
          "name": "_voteId",
          "type": "uint256"
        }
      ],
      "name": "getVoterId",
      "outputs": [
        {
          "name": "",
          "type": "uint256"
        }
      ],
      "payable": false,
      "stateMutability": "view",
      "type": "function"
    },
    {
      "constant": true,
      "inputs": [
        {
          "name": "_voteId",
          "type": "uint256"
        }
      ],
      "name": "results",
      "outputs": [
        {
          "name": "",
          "type": "bytes32"
        }
      ],
      "payable": false,
      "stateMutability": "view",
      "type": "function"
    },
    {
      "constant": true,
      "inputs": [
        {
          "name": "_voteId",
          "type": "uint256"
        }
      ],
      "name": "isStopped",
      "outputs": [
        {
          "name": "",
          "type": "bool"
        }
      ],
      "payable": false,
      "stateMutability": "view",
      "type": "function"
    }
  ],
  "bytecode": "0x6080604052336000806101000a81548173ffffffffffffffffffffffffffffffffffffffff021916908373ffffffffffffffffffffffffffffffffffffffff16021790555061167f806100536000396000f3006080604052600436106100e6576000357c0100000000000000000000000000000000000000000000000000000000900463ffffffff16806313292a02146100eb5780631b0c27da146101265780633f2205241461016f57806341c0e1b51461019c57806343ab92b7146101b35780635d5a3cae146101e05780635df81330146102415780636b7ea125146102fc5780636f276c991461034f5780638da5cb5b1461039457806392940cc9146103eb5780639e618f671461045b578063a2b67c1114610496578063dd2d9cb2146104d7578063e6ee3e6414610522578063f2fde38b1461058f575b600080fd5b3480156100f757600080fd5b506101246004803603810190808035906020019082018035906020019190919293919293905050506105d2565b005b34801561013257600080fd5b5061015160048036038101908080359060200190929190505050610860565b60405180826000191660001916815260200191505060405180910390f35b34801561017b57600080fd5b5061019a600480360381019080803590602001909291905050506109ba565b005b3480156101a857600080fd5b506101b1610aa4565b005b3480156101bf57600080fd5b506101de60048036038101908080359060200190929190505050610b39565b005b3480156101ec57600080fd5b5061022b600480360381019080803573ffffffffffffffffffffffffffffffffffffffff16906020019092919080359060200190929190505050610c7a565b6040518082815260200191505060405180910390f35b34801561024d57600080fd5b5061026c60048036038101908080359060200190929190505050610caa565b6040518083600281111561027c57fe5b60ff16815260200180602001828103825283818151815260200191508051906020019080838360005b838110156102c05780820151818401526020810190506102a5565b50505050905090810190601f1680156102ed5780820380516001836020036101000a031916815260200191505b50935050505060405180910390f35b34801561030857600080fd5b506103316004803603810190808035906020019092919080359060200190929190505050610d82565b60405180826000191660001916815260200191505060405180910390f35b34801561035b57600080fd5b5061037a60048036038101908080359060200190929190505050610dc4565b604051808215151515815260200191505060405180910390f35b3480156103a057600080fd5b506103a9610e13565b604051808273ffffffffffffffffffffffffffffffffffffffff1673ffffffffffffffffffffffffffffffffffffffff16815260200191505060405180910390f35b3480156103f757600080fd5b506104596004803603810190808035906020019092919080359060200190820180359060200190808060200260200160405190810160405280939291908181526020018383602002808284378201915050505050509192919290505050610e38565b005b34801561046757600080fd5b50610494600480360381019080803590602001909291908035600019169060200190929190505050610eea565b005b3480156104a257600080fd5b506104c160048036038101908080359060200190929190505050610ff4565b6040518082815260200191505060405180910390f35b3480156104e357600080fd5b5061050c60048036038101908080359060200190929190803590602001909291905050506110c0565b6040518082815260200191505060405180910390f35b34801561052e57600080fd5b5061054d600480360381019080803590602001909291905050506112a6565b604051808273ffffffffffffffffffffffffffffffffffffffff1673ffffffffffffffffffffffffffffffffffffffff16815260200191505060405180910390f35b34801561059b57600080fd5b506105d0600480360381019080803573ffffffffffffffffffffffffffffffffffffffff1690602001909291905050506112d9565b005b6000600180608060405190810160405280600060028111156105f057fe5b815260200186868080601f0160208091040260200160405190810160405280939291908181526020018383808284378201915050505050508152602001600060405190808252806020026020018201604052801561065d5781602001602082028038833980820191505090505b50815260200160006040519080825280602002602001820160405280156106935781602001602082028038833980820191505090505b508152509080600181540180825580915050906001820390600052602060002090600502016000909192909190915060008201518160000160006101000a81548160ff021916908360028111156106e657fe5b02179055506020820151816001019080519060200190610707929190611469565b5060408201518160020190805190602001906107249291906114e9565b50606082015181600301908051906020019061074192919061153c565b505050039050336002600083815260200190815260200160002060006101000a81548173ffffffffffffffffffffffffffffffffffffffff021916908373ffffffffffffffffffffffffffffffffffffffff160217905550600360003373ffffffffffffffffffffffffffffffffffffffff1673ffffffffffffffffffffffffffffffffffffffff1681526020019081526020016000208190806001815401808255809150509060018203906000526020600020016000909192909190915055507fef14945256f5c0916c4a21d0375f338b38047daed1b0be3889493528ce7a8c6581848460405180848152602001806020018281038252848482818152602001925080828437820191505094505050505060405180910390a1505050565b6000806060600080600060018781548110151561087957fe5b9060005260206000209060050201945084600201805490506040519080825280602002602001820160405280156108bf5781602001602082028038833980820191505090505b509350600092505b846003018054905083101561091b5783856004016000858152602001908152602001600020548151811015156108f957fe5b90602001906020020180518091906001018152505082806001019350506108c7565b6000915083600081518110151561092e57fe5b906020019060200201519050600092505b83518310156109925780848481518110151561095757fe5b90602001906020020151111561098557829150838381518110151561097857fe5b9060200190602002015190505b828060010193505061093f565b84600201828154811015156109a357fe5b906000526020600020015495505050505050919050565b803373ffffffffffffffffffffffffffffffffffffffff166002600083815260200190815260200160002060009054906101000a900473ffffffffffffffffffffffffffffffffffffffff1673ffffffffffffffffffffffffffffffffffffffff16141515610a2857600080fd5b60018083815481101515610a3857fe5b906000526020600020906005020160000160006101000a81548160ff02191690836002811115610a6457fe5b02179055507f33c2d6285ba1442f7dd954820743aacec7468bc52e1671024b948f48f1322640826040518082815260200191505060405180910390a15050565b6000809054906101000a900473ffffffffffffffffffffffffffffffffffffffff1673ffffffffffffffffffffffffffffffffffffffff163373ffffffffffffffffffffffffffffffffffffffff16141515610aff57600080fd5b6000809054906101000a900473ffffffffffffffffffffffffffffffffffffffff1673ffffffffffffffffffffffffffffffffffffffff16ff5b803373ffffffffffffffffffffffffffffffffffffffff166002600083815260200190815260200160002060009054906101000a900473ffffffffffffffffffffffffffffffffffffffff1673ffffffffffffffffffffffffffffffffffffffff16141515610ba757600080fd5b816001806002811115610bb657fe5b600183815481101515610bc557fe5b906000526020600020906005020160000160009054906101000a900460ff166002811115610bef57fe5b141515610bfb57600080fd5b6002600185815481101515610c0c57fe5b906000526020600020906005020160000160006101000a81548160ff02191690836002811115610c3857fe5b02179055507fe8365e88851bb4b0648d3337ec1cdd50ad29dbcbd22975d7412250ae530be7d3846040518082815260200191505060405180910390a150505050565b600360205281600052604060002081815481101515610c9557fe5b90600052602060002001600091509150505481565b600181815481101515610cb957fe5b90600052602060002090600502016000915090508060000160009054906101000a900460ff1690806001018054600181600116156101000203166002900480601f016020809104026020016040519081016040528092919081815260200182805460018160011615610100020316600290048015610d785780601f10610d4d57610100808354040283529160200191610d78565b820191906000526020600020905b815481529060010190602001808311610d5b57829003601f168201915b5050505050905082565b6000600183815481101515610d9357fe5b906000526020600020906005020160020182815481101515610db157fe5b9060005260206000200154905092915050565b6000600280811115610dd257fe5b600183815481101515610de157fe5b906000526020600020906005020160000160009054906101000a900460ff166002811115610e0b57fe5b149050919050565b6000809054906101000a900473ffffffffffffffffffffffffffffffffffffffff1681565b6000823373ffffffffffffffffffffffffffffffffffffffff166002600083815260200190815260200160002060009054906101000a900473ffffffffffffffffffffffffffffffffffffffff1673ffffffffffffffffffffffffffffffffffffffff16141515610ea857600080fd5b600091505b8251821015610ee457610ed7848484815181101515610ec857fe5b90602001906020020151610eea565b8180600101925050610ead565b50505050565b813373ffffffffffffffffffffffffffffffffffffffff166002600083815260200190815260200160002060009054906101000a900473ffffffffffffffffffffffffffffffffffffffff1673ffffffffffffffffffffffffffffffffffffffff16141515610f5857600080fd5b600183815481101515610f6757fe5b90600052602060002090600502016002018290806001815401808255809150509060018203906000526020600020016000909192909190915090600019169055507fa34176c107fa34629cbf58134d5a190898502131483be9302b55818edaf2c00383836040518083815260200182600019166000191681526020019250505060405180910390a1505050565b600080600060018481548110151561100857fe5b90600052602060002090600502016003019150600090505b81805490508110156110ad573373ffffffffffffffffffffffffffffffffffffffff16828281548110151561105157fe5b9060005260206000200160009054906101000a900473ffffffffffffffffffffffffffffffffffffffff1673ffffffffffffffffffffffffffffffffffffffff1614156110a0578092506110b9565b8080600101915050611020565b60016402540be4000192505b5050919050565b6000808360018060028111156110d257fe5b6001838154811015156110e157fe5b906000526020600020906005020160000160009054906101000a900460ff16600281111561110b57fe5b14151561111757600080fd5b6402540be40060018781548110151561112c57fe5b9060005260206000209060050201600301805490501015156111dc576040517f08c379a00000000000000000000000000000000000000000000000000000000081526004018080602001828103825260258152602001807f566f7465727320636f756e74206d757374206265206c6f776572204d41585f5681526020017f4f5445525300000000000000000000000000000000000000000000000000000081525060400191505060405180910390fd5b6111e586610ff4565b92506402540be400831015611207576111ff86868561142e565b82935061129d565b6001808781548110151561121757fe5b90600052602060002090600502016003013390806001815401808255809150509060018203906000526020600020016000909192909190916101000a81548173ffffffffffffffffffffffffffffffffffffffff021916908373ffffffffffffffffffffffffffffffffffffffff16021790555003925061129986868561142e565b8293505b50505092915050565b60026020528060005260406000206000915054906101000a900473ffffffffffffffffffffffffffffffffffffffff1681565b6000809054906101000a900473ffffffffffffffffffffffffffffffffffffffff1673ffffffffffffffffffffffffffffffffffffffff163373ffffffffffffffffffffffffffffffffffffffff1614151561133457600080fd5b600073ffffffffffffffffffffffffffffffffffffffff168173ffffffffffffffffffffffffffffffffffffffff161415151561137057600080fd5b8073ffffffffffffffffffffffffffffffffffffffff166000809054906101000a900473ffffffffffffffffffffffffffffffffffffffff1673ffffffffffffffffffffffffffffffffffffffff167f8be0079c531659141344cd1fd0a4f28419497f9722a3daafe3b4186f6b6457e060405160405180910390a3806000806101000a81548173ffffffffffffffffffffffffffffffffffffffff021916908373ffffffffffffffffffffffffffffffffffffffff16021790555050565b8160018481548110151561143e57fe5b9060005260206000209060050201600401600083815260200190815260200160002081905550505050565b828054600181600116156101000203166002900490600052602060002090601f016020900481019282601f106114aa57805160ff19168380011785556114d8565b828001600101855582156114d8579182015b828111156114d75782518255916020019190600101906114bc565b5b5090506114e591906115c6565b5090565b82805482825590600052602060002090810192821561152b579160200282015b8281111561152a578251829060001916905591602001919060010190611509565b5b50905061153891906115eb565b5090565b8280548282559060005260206000209081019282156115b5579160200282015b828111156115b45782518260006101000a81548173ffffffffffffffffffffffffffffffffffffffff021916908373ffffffffffffffffffffffffffffffffffffffff1602179055509160200191906001019061155c565b5b5090506115c29190611610565b5090565b6115e891905b808211156115e45760008160009055506001016115cc565b5090565b90565b61160d91905b808211156116095760008160009055506001016115f1565b5090565b90565b61165091905b8082111561164c57600081816101000a81549073ffffffffffffffffffffffffffffffffffffffff021916905550600101611616565b5090565b905600a165627a7a723058208990f5f17bc0b75bc0bd2524fc04096f183e02ec210257cf5e2c350aec73d1610029",
  "source": "pragma solidity ^0.4.24;\n\nimport \"./Ownable.sol\";\n\ncontract VoteFactory is Ownable {\n  modifier ownerOfVote(uint256 _voteId) {\n    require(voteToOwner[_voteId] == msg.sender);\n    _;\n  }\n  modifier stateOf(uint256 _voteId, State _state) {\n    require(votes[_voteId].state == _state);\n    _;\n  }\n\n  event CreateVote(uint256 id, string question);\n  event AddAnswer(uint256 voteId, bytes32 answers);\n  event StartVote(uint256 id);\n  event StopVote(uint256 id);\n\n  enum State {\n    Initial,\n    Started,\n    Stopped\n  }\n\n  uint256 constant MAX_VOTERS = 1e10;\n\n  struct Vote {\n    State state;\n    string question;\n    bytes32[] answers;\n    address[] voters;\n\n    mapping(uint256 => uint256) voterToAnswer;\n  }\n\n  Vote[] public votes;\n  mapping(uint256 => address) public voteToOwner;\n  mapping(address => uint256[]) public ownerToVotes;\n\n  function kill() public onlyOwner {\n    selfdestruct(owner);\n  }\n\n  function createVote(string _question) external {\n    uint256 voteId = votes.push(Vote(State.Initial, _question, new bytes32[](0), new address[](0))) - 1;\n    voteToOwner[voteId] = msg.sender;\n    ownerToVotes[msg.sender].push(voteId);\n    emit CreateVote(voteId, _question);\n  }\n\n  function addAnswer(uint256 _voteId, bytes32 _answer) public ownerOfVote(_voteId) {\n    votes[_voteId].answers.push(_answer);\n\n    emit AddAnswer(_voteId, _answer);\n  }\n\n  function addAnswers(uint256 _voteId, bytes32[] _answers) public ownerOfVote(_voteId) {\n    for (uint256 i = 0; i < _answers.length; i++) {\n      addAnswer(_voteId, _answers[i]);\n    }\n  }\n\n  function voteAnswer(uint256 _voteId, uint256 _answerId) public view returns(bytes32) {\n    return votes[_voteId].answers[_answerId];\n  }\n\n  function startVote(uint256 _voteId) external ownerOfVote(_voteId) {\n    votes[_voteId].state = State.Started;\n    emit StartVote(_voteId);\n  }\n\n  function stopVote(uint256 _voteId) external ownerOfVote(_voteId) stateOf(_voteId, State.Started) {\n    votes[_voteId].state = State.Stopped;\n    emit StopVote(_voteId);\n  }\n\n  function cast(uint256 _voteId, uint256 _answerId) external stateOf(_voteId, State.Started) returns(uint256) {\n    require(votes[_voteId].voters.length < MAX_VOTERS, \"Voters count must be lower MAX_VOTERS\");\n\n    uint256 voterId = getVoterId(_voteId);\n    if (voterId < MAX_VOTERS) {\n      _castVoter(_voteId, _answerId, voterId);\n      return voterId;\n    }\n\n    voterId = votes[_voteId].voters.push(msg.sender) - 1;\n    _castVoter(_voteId, _answerId, voterId);\n    return voterId;\n  }\n\n  function _castVoter(uint256 _voteId, uint256 _answerId, uint256 _voterId) private {\n    votes[_voteId].voterToAnswer[_voterId] = _answerId;\n  }\n\n  function getVoterId(uint256 _voteId) public view returns(uint256) {\n    address[] storage voters = votes[_voteId].voters;\n    for (uint256 i = 0; i < voters.length; i++)\n      if (voters[i] == msg.sender) {\n        return i;\n      }\n\n    return MAX_VOTERS + 1;\n  }\n\n  function results(uint256 _voteId) public view returns(bytes32) {\n    Vote storage vote = votes[_voteId];\n    uint256[] memory result = new uint256[](vote.answers.length);\n\n    for (uint256 i = 0; i < vote.voters.length; i++) {\n      result[vote.voterToAnswer[i]]++;\n    }\n\n    uint256 maxId = 0;\n    uint256 max = result[0];\n\n    for (i = 0; i < result.length; i++) {\n      if (result[i] > max) {\n        maxId = i;\n        max = result[i];\n      }\n    }\n\n    return vote.answers[maxId];\n  }\n\n  function isStopped(uint256 _voteId) external view returns(bool) {\n    return votes[_voteId].state == State.Stopped;\n  }\n\n}",
  "sourcePath": "/Users/alexey/Projects/SmartVote/contracts/VoteFactory.sol",
  "compiler": {
    "name": "solc",
    "version": "0.4.24+commit.e67f0147.Emscripten.clang"
  },
  "schemaVersion": "2.0.1",
  "updatedAt": "2018-08-25T17:43:44.095Z"
}