{
  "contractName": "VoteFactory",
  "abi": [
    {
      "constant": true,
      "inputs": [
        {
          "name": "",
          "type": "uint256"
        }
      ],
      "name": "votes",
      "outputs": [
        {
          "name": "state",
          "type": "uint8"
        },
        {
          "name": "question",
          "type": "string"
        }
      ],
      "payable": false,
      "stateMutability": "view",
      "type": "function"
    },
    {
      "constant": true,
      "inputs": [],
      "name": "owner",
      "outputs": [
        {
          "name": "",
          "type": "address"
        }
      ],
      "payable": false,
      "stateMutability": "view",
      "type": "function"
    },
    {
      "constant": true,
      "inputs": [
        {
          "name": "",
          "type": "uint256"
        }
      ],
      "name": "voteToOwner",
      "outputs": [
        {
          "name": "",
          "type": "address"
        }
      ],
      "payable": false,
      "stateMutability": "view",
      "type": "function"
    },
    {
      "constant": false,
      "inputs": [
        {
          "name": "newOwner",
          "type": "address"
        }
      ],
      "name": "transferOwnership",
      "outputs": [],
      "payable": false,
      "stateMutability": "nonpayable",
      "type": "function"
    },
    {
      "anonymous": false,
      "inputs": [
        {
          "indexed": false,
          "name": "id",
          "type": "uint256"
        },
        {
          "indexed": false,
          "name": "question",
          "type": "string"
        }
      ],
      "name": "CreateVote",
      "type": "event"
    },
    {
      "anonymous": false,
      "inputs": [
        {
          "indexed": false,
          "name": "id",
          "type": "uint256"
        }
      ],
      "name": "StartVote",
      "type": "event"
    },
    {
      "anonymous": false,
      "inputs": [
        {
          "indexed": false,
          "name": "id",
          "type": "uint256"
        }
      ],
      "name": "StopVote",
      "type": "event"
    },
    {
      "anonymous": false,
      "inputs": [
        {
          "indexed": true,
          "name": "previousOwner",
          "type": "address"
        },
        {
          "indexed": true,
          "name": "newOwner",
          "type": "address"
        }
      ],
      "name": "OwnershipTransferred",
      "type": "event"
    },
    {
      "constant": false,
      "inputs": [],
      "name": "kill",
      "outputs": [],
      "payable": false,
      "stateMutability": "nonpayable",
      "type": "function"
    },
    {
      "constant": false,
      "inputs": [
        {
          "name": "_question",
          "type": "string"
        }
      ],
      "name": "createVote",
      "outputs": [],
      "payable": false,
      "stateMutability": "nonpayable",
      "type": "function"
    },
    {
      "constant": false,
      "inputs": [
        {
          "name": "_voteId",
          "type": "uint256"
        },
        {
          "name": "_answer",
          "type": "string"
        }
      ],
      "name": "addAnswer",
      "outputs": [],
      "payable": false,
      "stateMutability": "nonpayable",
      "type": "function"
    },
    {
      "constant": true,
      "inputs": [
        {
          "name": "_voteId",
          "type": "uint256"
        },
        {
          "name": "_answerId",
          "type": "uint256"
        }
      ],
      "name": "voteAnswer",
      "outputs": [
        {
          "name": "",
          "type": "string"
        }
      ],
      "payable": false,
      "stateMutability": "view",
      "type": "function"
    },
    {
      "constant": false,
      "inputs": [
        {
          "name": "_voteId",
          "type": "uint256"
        }
      ],
      "name": "startVote",
      "outputs": [],
      "payable": false,
      "stateMutability": "nonpayable",
      "type": "function"
    },
    {
      "constant": false,
      "inputs": [
        {
          "name": "_voteId",
          "type": "uint256"
        }
      ],
      "name": "stopVote",
      "outputs": [],
      "payable": false,
      "stateMutability": "nonpayable",
      "type": "function"
    },
    {
      "constant": false,
      "inputs": [
        {
          "name": "_voteId",
          "type": "uint256"
        },
        {
          "name": "_answerId",
          "type": "uint256"
        }
      ],
      "name": "cast",
      "outputs": [],
      "payable": false,
      "stateMutability": "nonpayable",
      "type": "function"
    },
    {
      "constant": true,
      "inputs": [
        {
          "name": "_voteId",
          "type": "uint256"
        }
      ],
      "name": "results",
      "outputs": [
        {
          "name": "",
          "type": "string"
        }
      ],
      "payable": false,
      "stateMutability": "view",
      "type": "function"
    },
    {
      "constant": true,
      "inputs": [
        {
          "name": "_voteId",
          "type": "uint256"
        }
      ],
      "name": "isStopped",
      "outputs": [
        {
          "name": "",
          "type": "bool"
        }
      ],
      "payable": false,
      "stateMutability": "view",
      "type": "function"
    }
  ],
  "bytecode": "0x6080604052336000806101000a81548173ffffffffffffffffffffffffffffffffffffffff021916908373ffffffffffffffffffffffffffffffffffffffff160217905550611591806100536000396000f3006080604052600436106100c5576000357c0100000000000000000000000000000000000000000000000000000000900463ffffffff16806313292a02146100ca5780631b0c27da146101055780633f220524146101ab57806341c0e1b5146101d857806343ab92b7146101ef5780635df813301461021c5780636b7ea125146102d75780636f276c99146103875780637491995a146103cc5780638da5cb5b14610411578063dd2d9cb214610468578063e6ee3e641461049f578063f2fde38b1461050c575b600080fd5b3480156100d657600080fd5b5061010360048036038101908080359060200190820180359060200191909192939192939050505061054f565b005b34801561011157600080fd5b5061013060048036038101908080359060200190929190505050610779565b6040518080602001828103825283818151815260200191508051906020019080838360005b83811015610170578082015181840152602081019050610155565b50505050905090810190601f16801561019d5780820380516001836020036101000a031916815260200191505b509250505060405180910390f35b3480156101b757600080fd5b506101d660048036038101908080359060200190929190505050610971565b005b3480156101e457600080fd5b506101ed610a5b565b005b3480156101fb57600080fd5b5061021a60048036038101908080359060200190929190505050610af0565b005b34801561022857600080fd5b5061024760048036038101908080359060200190929190505050610c31565b6040518083600281111561025757fe5b60ff16815260200180602001828103825283818151815260200191508051906020019080838360005b8381101561029b578082015181840152602081019050610280565b50505050905090810190601f1680156102c85780820380516001836020036101000a031916815260200191505b50935050505060405180910390f35b3480156102e357600080fd5b5061030c6004803603810190808035906020019092919080359060200190929190505050610d09565b6040518080602001828103825283818151815260200191508051906020019080838360005b8381101561034c578082015181840152602081019050610331565b50505050905090810190601f1680156103795780820380516001836020036101000a031916815260200191505b509250505060405180910390f35b34801561039357600080fd5b506103b260048036038101908080359060200190929190505050610de3565b604051808215151515815260200191505060405180910390f35b3480156103d857600080fd5b5061040f60048036038101908080359060200190929190803590602001908201803590602001919091929391929390505050610e32565b005b34801561041d57600080fd5b50610426610f06565b604051808273ffffffffffffffffffffffffffffffffffffffff1673ffffffffffffffffffffffffffffffffffffffff16815260200191505060405180910390f35b34801561047457600080fd5b5061049d6004803603810190808035906020019092919080359060200190929190505050610f2b565b005b3480156104ab57600080fd5b506104ca600480360381019080803590602001909291905050506110dc565b604051808273ffffffffffffffffffffffffffffffffffffffff1673ffffffffffffffffffffffffffffffffffffffff16815260200191505060405180910390f35b34801561051857600080fd5b5061054d600480360381019080803573ffffffffffffffffffffffffffffffffffffffff16906020019092919050505061110f565b005b60006001806080604051908101604052806000600281111561056d57fe5b815260200186868080601f016020809104026020016040519081016040528093929190818152602001838380828437820191505050505050815260200160006040519080825280602002602001820160405280156105df57816020015b60608152602001906001900390816105ca5790505b50815260200160006040519080825280602002602001820160405280156106155781602001602082028038833980820191505090505b508152509080600181540180825580915050906001820390600052602060002090600502016000909192909190915060008201518160000160006101000a81548160ff0219169083600281111561066857fe5b0217905550602082015181600101908051906020019061068992919061129f565b5060408201518160020190805190602001906106a692919061131f565b5060608201518160030190805190602001906106c392919061137f565b505050039050336002600083815260200190815260200160002060006101000a81548173ffffffffffffffffffffffffffffffffffffffff021916908373ffffffffffffffffffffffffffffffffffffffff1602179055507fef14945256f5c0916c4a21d0375f338b38047daed1b0be3889493528ce7a8c6581848460405180848152602001806020018281038252848482818152602001925080828437820191505094505050505060405180910390a1505050565b60606000606060008060008060018881548110151561079457fe5b9060005260206000209060050201955085600201805490506040519080825280602002602001820160405280156107da5781602001602082028038833980820191505090505b509450856003019350600092505b838054905083101561083957848660040160008581526020019081526020016000205481518110151561081757fe5b90602001906020020180518091906001018152505082806001019350506107e8565b6000915084600081518110151561084c57fe5b906020019060200201519050600092505b84518310156108b05780858481518110151561087557fe5b9060200190602002015111156108a357829150848381518110151561089657fe5b9060200190602002015190505b828060010193505061085d565b85600201828154811015156108c157fe5b906000526020600020018054600181600116156101000203166002900480601f01602080910402602001604051908101604052809291908181526020018280546001816001161561010002031660029004801561095f5780601f106109345761010080835404028352916020019161095f565b820191906000526020600020905b81548152906001019060200180831161094257829003601f168201915b50505050509650505050505050919050565b803373ffffffffffffffffffffffffffffffffffffffff166002600083815260200190815260200160002060009054906101000a900473ffffffffffffffffffffffffffffffffffffffff1673ffffffffffffffffffffffffffffffffffffffff161415156109df57600080fd5b600180838154811015156109ef57fe5b906000526020600020906005020160000160006101000a81548160ff02191690836002811115610a1b57fe5b02179055507f33c2d6285ba1442f7dd954820743aacec7468bc52e1671024b948f48f1322640826040518082815260200191505060405180910390a15050565b6000809054906101000a900473ffffffffffffffffffffffffffffffffffffffff1673ffffffffffffffffffffffffffffffffffffffff163373ffffffffffffffffffffffffffffffffffffffff16141515610ab657600080fd5b6000809054906101000a900473ffffffffffffffffffffffffffffffffffffffff1673ffffffffffffffffffffffffffffffffffffffff16ff5b803373ffffffffffffffffffffffffffffffffffffffff166002600083815260200190815260200160002060009054906101000a900473ffffffffffffffffffffffffffffffffffffffff1673ffffffffffffffffffffffffffffffffffffffff16141515610b5e57600080fd5b816001806002811115610b6d57fe5b600183815481101515610b7c57fe5b906000526020600020906005020160000160009054906101000a900460ff166002811115610ba657fe5b141515610bb257600080fd5b6002600185815481101515610bc357fe5b906000526020600020906005020160000160006101000a81548160ff02191690836002811115610bef57fe5b02179055507fe8365e88851bb4b0648d3337ec1cdd50ad29dbcbd22975d7412250ae530be7d3846040518082815260200191505060405180910390a150505050565b600181815481101515610c4057fe5b90600052602060002090600502016000915090508060000160009054906101000a900460ff1690806001018054600181600116156101000203166002900480601f016020809104026020016040519081016040528092919081815260200182805460018160011615610100020316600290048015610cff5780601f10610cd457610100808354040283529160200191610cff565b820191906000526020600020905b815481529060010190602001808311610ce257829003601f168201915b5050505050905082565b6060600183815481101515610d1a57fe5b906000526020600020906005020160020182815481101515610d3857fe5b906000526020600020018054600181600116156101000203166002900480601f016020809104026020016040519081016040528092919081815260200182805460018160011615610100020316600290048015610dd65780601f10610dab57610100808354040283529160200191610dd6565b820191906000526020600020905b815481529060010190602001808311610db957829003601f168201915b5050505050905092915050565b6000600280811115610df157fe5b600183815481101515610e0057fe5b906000526020600020906005020160000160009054906101000a900460ff166002811115610e2a57fe5b149050919050565b823373ffffffffffffffffffffffffffffffffffffffff166002600083815260200190815260200160002060009054906101000a900473ffffffffffffffffffffffffffffffffffffffff1673ffffffffffffffffffffffffffffffffffffffff16141515610ea057600080fd5b600184815481101515610eaf57fe5b9060005260206000209060050201600201838390918060018154018082558091505090600182039060005260206000200160009091929390919293909192909192509190610efe929190611409565b505050505050565b6000809054906101000a900473ffffffffffffffffffffffffffffffffffffffff1681565b6000806000846001806002811115610f3f57fe5b600183815481101515610f4e57fe5b906000526020600020906005020160000160009054906101000a900460ff166002811115610f7857fe5b141515610f8457600080fd5b600187815481101515610f9357fe5b90600052602060002090600502016003019450600093505b8480549050841015611040573373ffffffffffffffffffffffffffffffffffffffff168585815481101515610fdc57fe5b9060005260206000200160009054906101000a900473ffffffffffffffffffffffffffffffffffffffff1673ffffffffffffffffffffffffffffffffffffffff1614156110335761102e878786611264565b6110d3565b8380600101945050610fab565b6001808881548110151561105057fe5b90600052602060002090600502016003013390806001815401808255809150509060018203906000526020600020016000909192909190916101000a81548173ffffffffffffffffffffffffffffffffffffffff021916908373ffffffffffffffffffffffffffffffffffffffff1602179055500392506110d2878785611264565b5b50505050505050565b60026020528060005260406000206000915054906101000a900473ffffffffffffffffffffffffffffffffffffffff1681565b6000809054906101000a900473ffffffffffffffffffffffffffffffffffffffff1673ffffffffffffffffffffffffffffffffffffffff163373ffffffffffffffffffffffffffffffffffffffff1614151561116a57600080fd5b600073ffffffffffffffffffffffffffffffffffffffff168173ffffffffffffffffffffffffffffffffffffffff16141515156111a657600080fd5b8073ffffffffffffffffffffffffffffffffffffffff166000809054906101000a900473ffffffffffffffffffffffffffffffffffffffff1673ffffffffffffffffffffffffffffffffffffffff167f8be0079c531659141344cd1fd0a4f28419497f9722a3daafe3b4186f6b6457e060405160405180910390a3806000806101000a81548173ffffffffffffffffffffffffffffffffffffffff021916908373ffffffffffffffffffffffffffffffffffffffff16021790555050565b8160018481548110151561127457fe5b9060005260206000209060050201600401600083815260200190815260200160002081905550505050565b828054600181600116156101000203166002900490600052602060002090601f016020900481019282601f106112e057805160ff191683800117855561130e565b8280016001018555821561130e579182015b8281111561130d5782518255916020019190600101906112f2565b5b50905061131b9190611489565b5090565b82805482825590600052602060002090810192821561136e579160200282015b8281111561136d57825182908051906020019061135d92919061129f565b509160200191906001019061133f565b5b50905061137b91906114ae565b5090565b8280548282559060005260206000209081019282156113f8579160200282015b828111156113f75782518260006101000a81548173ffffffffffffffffffffffffffffffffffffffff021916908373ffffffffffffffffffffffffffffffffffffffff1602179055509160200191906001019061139f565b5b50905061140591906114da565b5090565b828054600181600116156101000203166002900490600052602060002090601f016020900481019282601f1061144a57803560ff1916838001178555611478565b82800160010185558215611478579182015b8281111561147757823582559160200191906001019061145c565b5b5090506114859190611489565b5090565b6114ab91905b808211156114a757600081600090555060010161148f565b5090565b90565b6114d791905b808211156114d357600081816114ca919061151d565b506001016114b4565b5090565b90565b61151a91905b8082111561151657600081816101000a81549073ffffffffffffffffffffffffffffffffffffffff0219169055506001016114e0565b5090565b90565b50805460018160011615610100020316600290046000825580601f106115435750611562565b601f0160209004906000526020600020908101906115619190611489565b5b505600a165627a7a72305820742b12b80de6194a30597a09736dea1e53577acadc7db4234201272cdaedd90f0029",
  "source": "pragma solidity ^0.4.19;\n\nimport \"./Ownable.sol\";\n\ncontract VoteFactory is Ownable {\n    modifier ownerOfVote(uint _voteId) {\n        require(voteToOwner[_voteId] == msg.sender);\n        _;\n    }\n    modifier stateOf(uint _voteId, State _state) {\n        require(votes[_voteId].state == _state);\n        _;\n    }\n\n    event CreateVote(uint id, string question);\n    event StartVote(uint id);\n    event StopVote(uint id);\n\n    enum State {\n        Initial,\n        Started,\n        Stopped\n    }\n\n    struct Vote {\n        State state;\n        string question;\n        string[] answers;\n        address[] voters;\n        \n        mapping (uint => uint) voterToAnswer;\n    }\n\n    Vote[] public votes;\n    mapping (uint => address) public voteToOwner;\n    \n    function kill() public onlyOwner {\n        selfdestruct(owner);\n    }\n    \n    function createVote(string _question) external {\n        uint voteId = votes.push(Vote(State.Initial, _question, new string[](0), new address[](0))) - 1;\n        voteToOwner[voteId] = msg.sender;\n        emit CreateVote(voteId, _question);\n    }\n\n    function addAnswer(uint _voteId, string _answer) external ownerOfVote(_voteId) {\n        votes[_voteId].answers.push(_answer);\n    }\n\n    function voteAnswer(uint _voteId, uint _answerId) public view returns(string) {\n        return votes[_voteId].answers[_answerId];\n    }\n    \n    function startVote(uint _voteId) external ownerOfVote(_voteId) {\n        votes[_voteId].state = State.Started;\n        emit StartVote(_voteId);\n    }\n    \n    function stopVote(uint _voteId) external ownerOfVote(_voteId) stateOf(_voteId, State.Started) {\n        votes[_voteId].state = State.Stopped;\n        emit StopVote(_voteId);\n    }\n\n    function _castVoter(uint _voteId, uint _answerId, uint _voterId) private {\n        votes[_voteId].voterToAnswer[_voterId] = _answerId;\n    }\n\n    function cast(uint _voteId, uint _answerId) external stateOf(_voteId, State.Started) {\n        address[] storage voters = votes[_voteId].voters;\n        for (uint i = 0; i < voters.length; i++)\n            if (voters[i] == msg.sender) {\n                _castVoter(_voteId, _answerId, i);\n                return;\n            }\n\n        uint voterId = votes[_voteId].voters.push(msg.sender) - 1;            \n        _castVoter(_voteId, _answerId, voterId);\n    }\n\n    function results(uint _voteId) external view returns(string) {\n        Vote storage vote = votes[_voteId];\n        uint[] memory result = new uint[](vote.answers.length);\n        address[] storage voters = vote.voters;\n\n        for (uint i = 0; i < voters.length; i++) {\n            result[vote.voterToAnswer[i]]++;\n        }\n\n        uint maxId = 0;\n        uint max = result[0];\n\n        for (i = 0; i < result.length; i++) {\n            if (result[i] > max) {\n                maxId = i;\n                max = result[i];\n            }\n        }\n\n        return vote.answers[maxId];\n    }\n\n    function isStopped(uint _voteId) external view returns(bool) {\n        return votes[_voteId].state == State.Stopped;\n    }\n    \n}\n",
  "sourcePath": "/Users/alexey/Projects/SmartVote/contracts/VoteFactory.sol",
  "compiler": {
    "name": "solc",
    "version": "0.4.23+commit.124ca40d.Emscripten.clang"
  },
  "schemaVersion": "2.0.0",
  "updatedAt": "2018-05-15T09:36:47.909Z"
}