{
  "contractName": "VoteFactory",
  "abi": [
    {
      "constant": true,
      "inputs": [
        {
          "name": "",
          "type": "uint256"
        }
      ],
      "name": "votes",
      "outputs": [
        {
          "name": "state",
          "type": "uint8"
        },
        {
          "name": "question",
          "type": "string"
        }
      ],
      "payable": false,
      "stateMutability": "view",
      "type": "function"
    },
    {
      "constant": true,
      "inputs": [],
      "name": "owner",
      "outputs": [
        {
          "name": "",
          "type": "address"
        }
      ],
      "payable": false,
      "stateMutability": "view",
      "type": "function"
    },
    {
      "constant": true,
      "inputs": [
        {
          "name": "",
          "type": "uint256"
        }
      ],
      "name": "voteToOwner",
      "outputs": [
        {
          "name": "",
          "type": "address"
        }
      ],
      "payable": false,
      "stateMutability": "view",
      "type": "function"
    },
    {
      "constant": false,
      "inputs": [
        {
          "name": "newOwner",
          "type": "address"
        }
      ],
      "name": "transferOwnership",
      "outputs": [],
      "payable": false,
      "stateMutability": "nonpayable",
      "type": "function"
    },
    {
      "anonymous": false,
      "inputs": [
        {
          "indexed": false,
          "name": "id",
          "type": "uint256"
        },
        {
          "indexed": false,
          "name": "question",
          "type": "string"
        }
      ],
      "name": "CreateVote",
      "type": "event"
    },
    {
      "anonymous": false,
      "inputs": [
        {
          "indexed": false,
          "name": "id",
          "type": "uint256"
        }
      ],
      "name": "StartVote",
      "type": "event"
    },
    {
      "anonymous": false,
      "inputs": [
        {
          "indexed": false,
          "name": "id",
          "type": "uint256"
        }
      ],
      "name": "StopVote",
      "type": "event"
    },
    {
      "anonymous": false,
      "inputs": [
        {
          "indexed": true,
          "name": "previousOwner",
          "type": "address"
        },
        {
          "indexed": true,
          "name": "newOwner",
          "type": "address"
        }
      ],
      "name": "OwnershipTransferred",
      "type": "event"
    },
    {
      "constant": false,
      "inputs": [],
      "name": "kill",
      "outputs": [],
      "payable": false,
      "stateMutability": "nonpayable",
      "type": "function"
    },
    {
      "constant": false,
      "inputs": [
        {
          "name": "_question",
          "type": "string"
        }
      ],
      "name": "createVote",
      "outputs": [],
      "payable": false,
      "stateMutability": "nonpayable",
      "type": "function"
    },
    {
      "constant": false,
      "inputs": [
        {
          "name": "_voteId",
          "type": "uint256"
        },
        {
          "name": "_answer",
          "type": "string"
        }
      ],
      "name": "addAnswer",
      "outputs": [],
      "payable": false,
      "stateMutability": "nonpayable",
      "type": "function"
    },
    {
      "constant": true,
      "inputs": [
        {
          "name": "_voteId",
          "type": "uint256"
        },
        {
          "name": "_answerId",
          "type": "uint256"
        }
      ],
      "name": "voteAnswer",
      "outputs": [
        {
          "name": "",
          "type": "string"
        }
      ],
      "payable": false,
      "stateMutability": "view",
      "type": "function"
    },
    {
      "constant": false,
      "inputs": [
        {
          "name": "_voteId",
          "type": "uint256"
        }
      ],
      "name": "startVote",
      "outputs": [],
      "payable": false,
      "stateMutability": "nonpayable",
      "type": "function"
    },
    {
      "constant": false,
      "inputs": [
        {
          "name": "_voteId",
          "type": "uint256"
        }
      ],
      "name": "stopVote",
      "outputs": [],
      "payable": false,
      "stateMutability": "nonpayable",
      "type": "function"
    },
    {
      "constant": false,
      "inputs": [
        {
          "name": "_voteId",
          "type": "uint256"
        },
        {
          "name": "_answerId",
          "type": "uint256"
        }
      ],
      "name": "cast1",
      "outputs": [
        {
          "name": "",
          "type": "uint256"
        }
      ],
      "payable": false,
      "stateMutability": "nonpayable",
      "type": "function"
    },
    {
      "constant": false,
      "inputs": [
        {
          "name": "_voteId",
          "type": "uint256"
        },
        {
          "name": "_answerId",
          "type": "uint256"
        }
      ],
      "name": "cast",
      "outputs": [
        {
          "name": "",
          "type": "uint256"
        }
      ],
      "payable": false,
      "stateMutability": "nonpayable",
      "type": "function"
    },
    {
      "constant": true,
      "inputs": [
        {
          "name": "_voteId",
          "type": "uint256"
        }
      ],
      "name": "getVoterId",
      "outputs": [
        {
          "name": "",
          "type": "uint256"
        }
      ],
      "payable": false,
      "stateMutability": "view",
      "type": "function"
    },
    {
      "constant": true,
      "inputs": [
        {
          "name": "_voteId",
          "type": "uint256"
        }
      ],
      "name": "results",
      "outputs": [
        {
          "name": "",
          "type": "string"
        }
      ],
      "payable": false,
      "stateMutability": "view",
      "type": "function"
    },
    {
      "constant": true,
      "inputs": [
        {
          "name": "_voteId",
          "type": "uint256"
        }
      ],
      "name": "isStopped",
      "outputs": [
        {
          "name": "",
          "type": "bool"
        }
      ],
      "payable": false,
      "stateMutability": "view",
      "type": "function"
    }
  ],
  "bytecode": "0x6080604052336000806101000a81548173ffffffffffffffffffffffffffffffffffffffff021916908373ffffffffffffffffffffffffffffffffffffffff1602179055506119a3806100536000396000f3006080604052600436106100db576000357c0100000000000000000000000000000000000000000000000000000000900463ffffffff16806313292a02146100e05780631b0c27da1461011b5780633f220524146101c157806341c0e1b5146101ee57806343ab92b7146102055780635df81330146102325780636b7ea125146102ed5780636f276c991461039d5780637491995a146103e25780638da5cb5b14610427578063a2b67c111461047e578063dd2d9cb2146104bf578063e6ee3e641461050a578063f2fde38b14610577578063fafa329b146105ba575b600080fd5b3480156100ec57600080fd5b50610119600480360381019080803590602001908201803590602001919091929391929390505050610605565b005b34801561012757600080fd5b506101466004803603810190808035906020019092919050505061082f565b6040518080602001828103825283818151815260200191508051906020019080838360005b8381101561018657808201518184015260208101905061016b565b50505050905090810190601f1680156101b35780820380516001836020036101000a031916815260200191505b509250505060405180910390f35b3480156101cd57600080fd5b506101ec60048036038101908080359060200190929190505050610a22565b005b3480156101fa57600080fd5b50610203610b0c565b005b34801561021157600080fd5b5061023060048036038101908080359060200190929190505050610ba1565b005b34801561023e57600080fd5b5061025d60048036038101908080359060200190929190505050610ce2565b6040518083600281111561026d57fe5b60ff16815260200180602001828103825283818151815260200191508051906020019080838360005b838110156102b1578082015181840152602081019050610296565b50505050905090810190601f1680156102de5780820380516001836020036101000a031916815260200191505b50935050505060405180910390f35b3480156102f957600080fd5b506103226004803603810190808035906020019092919080359060200190929190505050610dba565b6040518080602001828103825283818151815260200191508051906020019080838360005b83811015610362578082015181840152602081019050610347565b50505050905090810190601f16801561038f5780820380516001836020036101000a031916815260200191505b509250505060405180910390f35b3480156103a957600080fd5b506103c860048036038101908080359060200190929190505050610e94565b604051808215151515815260200191505060405180910390f35b3480156103ee57600080fd5b5061042560048036038101908080359060200190929190803590602001908201803590602001919091929391929390505050610ee3565b005b34801561043357600080fd5b5061043c610fb7565b604051808273ffffffffffffffffffffffffffffffffffffffff1673ffffffffffffffffffffffffffffffffffffffff16815260200191505060405180910390f35b34801561048a57600080fd5b506104a960048036038101908080359060200190929190505050610fdc565b6040518082815260200191505060405180910390f35b3480156104cb57600080fd5b506104f460048036038101908080359060200190929190803590602001909291905050506110a8565b6040518082815260200191505060405180910390f35b34801561051657600080fd5b506105356004803603810190808035906020019092919050505061128e565b604051808273ffffffffffffffffffffffffffffffffffffffff1673ffffffffffffffffffffffffffffffffffffffff16815260200191505060405180910390f35b34801561058357600080fd5b506105b8600480360381019080803573ffffffffffffffffffffffffffffffffffffffff1690602001909291905050506112c1565b005b3480156105c657600080fd5b506105ef6004803603810190808035906020019092919080359060200190929190505050611416565b6040518082815260200191505060405180910390f35b60006001806080604051908101604052806000600281111561062357fe5b815260200186868080601f0160208091040260200160405190810160405280939291908181526020018383808284378201915050505050508152602001600060405190808252806020026020018201604052801561069557816020015b60608152602001906001900390816106805790505b50815260200160006040519080825280602002602001820160405280156106cb5781602001602082028038833980820191505090505b508152509080600181540180825580915050906001820390600052602060002090600502016000909192909190915060008201518160000160006101000a81548160ff0219169083600281111561071e57fe5b0217905550602082015181600101908051906020019061073f9291906116b1565b50604082015181600201908051906020019061075c929190611731565b506060820151816003019080519060200190610779929190611791565b505050039050336002600083815260200190815260200160002060006101000a81548173ffffffffffffffffffffffffffffffffffffffff021916908373ffffffffffffffffffffffffffffffffffffffff1602179055507fef14945256f5c0916c4a21d0375f338b38047daed1b0be3889493528ce7a8c6581848460405180848152602001806020018281038252848482818152602001925080828437820191505094505050505060405180910390a1505050565b606060006060600080600060018781548110151561084957fe5b90600052602060002090600502019450846002018054905060405190808252806020026020018201604052801561088f5781602001602082028038833980820191505090505b509350600092505b84600301805490508310156108eb5783856004016000858152602001908152602001600020548151811015156108c957fe5b9060200190602002018051809190600101815250508280600101935050610897565b600091508360008151811015156108fe57fe5b906020019060200201519050600092505b83518310156109625780848481518110151561092757fe5b90602001906020020151111561095557829150838381518110151561094857fe5b9060200190602002015190505b828060010193505061090f565b846002018281548110151561097357fe5b906000526020600020018054600181600116156101000203166002900480601f016020809104026020016040519081016040528092919081815260200182805460018160011615610100020316600290048015610a115780601f106109e657610100808354040283529160200191610a11565b820191906000526020600020905b8154815290600101906020018083116109f457829003601f168201915b505050505095505050505050919050565b803373ffffffffffffffffffffffffffffffffffffffff166002600083815260200190815260200160002060009054906101000a900473ffffffffffffffffffffffffffffffffffffffff1673ffffffffffffffffffffffffffffffffffffffff16141515610a9057600080fd5b60018083815481101515610aa057fe5b906000526020600020906005020160000160006101000a81548160ff02191690836002811115610acc57fe5b02179055507f33c2d6285ba1442f7dd954820743aacec7468bc52e1671024b948f48f1322640826040518082815260200191505060405180910390a15050565b6000809054906101000a900473ffffffffffffffffffffffffffffffffffffffff1673ffffffffffffffffffffffffffffffffffffffff163373ffffffffffffffffffffffffffffffffffffffff16141515610b6757600080fd5b6000809054906101000a900473ffffffffffffffffffffffffffffffffffffffff1673ffffffffffffffffffffffffffffffffffffffff16ff5b803373ffffffffffffffffffffffffffffffffffffffff166002600083815260200190815260200160002060009054906101000a900473ffffffffffffffffffffffffffffffffffffffff1673ffffffffffffffffffffffffffffffffffffffff16141515610c0f57600080fd5b816001806002811115610c1e57fe5b600183815481101515610c2d57fe5b906000526020600020906005020160000160009054906101000a900460ff166002811115610c5757fe5b141515610c6357600080fd5b6002600185815481101515610c7457fe5b906000526020600020906005020160000160006101000a81548160ff02191690836002811115610ca057fe5b02179055507fe8365e88851bb4b0648d3337ec1cdd50ad29dbcbd22975d7412250ae530be7d3846040518082815260200191505060405180910390a150505050565b600181815481101515610cf157fe5b90600052602060002090600502016000915090508060000160009054906101000a900460ff1690806001018054600181600116156101000203166002900480601f016020809104026020016040519081016040528092919081815260200182805460018160011615610100020316600290048015610db05780601f10610d8557610100808354040283529160200191610db0565b820191906000526020600020905b815481529060010190602001808311610d9357829003601f168201915b5050505050905082565b6060600183815481101515610dcb57fe5b906000526020600020906005020160020182815481101515610de957fe5b906000526020600020018054600181600116156101000203166002900480601f016020809104026020016040519081016040528092919081815260200182805460018160011615610100020316600290048015610e875780601f10610e5c57610100808354040283529160200191610e87565b820191906000526020600020905b815481529060010190602001808311610e6a57829003601f168201915b5050505050905092915050565b6000600280811115610ea257fe5b600183815481101515610eb157fe5b906000526020600020906005020160000160009054906101000a900460ff166002811115610edb57fe5b149050919050565b823373ffffffffffffffffffffffffffffffffffffffff166002600083815260200190815260200160002060009054906101000a900473ffffffffffffffffffffffffffffffffffffffff1673ffffffffffffffffffffffffffffffffffffffff16141515610f5157600080fd5b600184815481101515610f6057fe5b9060005260206000209060050201600201838390918060018154018082558091505090600182039060005260206000200160009091929390919293909192909192509190610faf92919061181b565b505050505050565b6000809054906101000a900473ffffffffffffffffffffffffffffffffffffffff1681565b6000806000600184815481101515610ff057fe5b90600052602060002090600502016003019150600090505b8180549050811015611095573373ffffffffffffffffffffffffffffffffffffffff16828281548110151561103957fe5b9060005260206000200160009054906101000a900473ffffffffffffffffffffffffffffffffffffffff1673ffffffffffffffffffffffffffffffffffffffff161415611088578092506110a1565b8080600101915050611008565b60016402540be4000192505b5050919050565b6000808360018060028111156110ba57fe5b6001838154811015156110c957fe5b906000526020600020906005020160000160009054906101000a900460ff1660028111156110f357fe5b1415156110ff57600080fd5b6402540be40060018781548110151561111457fe5b9060005260206000209060050201600301805490501015156111c4576040517f08c379a00000000000000000000000000000000000000000000000000000000081526004018080602001828103825260258152602001807f566f7465727320636f756e74206d757374206265206c6f776572204d41585f5681526020017f4f5445525300000000000000000000000000000000000000000000000000000081525060400191505060405180910390fd5b6111cd86610fdc565b92506402540be4008310156111ef576111e7868685611676565b829350611285565b600180878154811015156111ff57fe5b90600052602060002090600502016003013390806001815401808255809150509060018203906000526020600020016000909192909190916101000a81548173ffffffffffffffffffffffffffffffffffffffff021916908373ffffffffffffffffffffffffffffffffffffffff160217905550039250611281868685611676565b8293505b50505092915050565b60026020528060005260406000206000915054906101000a900473ffffffffffffffffffffffffffffffffffffffff1681565b6000809054906101000a900473ffffffffffffffffffffffffffffffffffffffff1673ffffffffffffffffffffffffffffffffffffffff163373ffffffffffffffffffffffffffffffffffffffff1614151561131c57600080fd5b600073ffffffffffffffffffffffffffffffffffffffff168173ffffffffffffffffffffffffffffffffffffffff161415151561135857600080fd5b8073ffffffffffffffffffffffffffffffffffffffff166000809054906101000a900473ffffffffffffffffffffffffffffffffffffffff1673ffffffffffffffffffffffffffffffffffffffff167f8be0079c531659141344cd1fd0a4f28419497f9722a3daafe3b4186f6b6457e060405160405180910390a3806000806101000a81548173ffffffffffffffffffffffffffffffffffffffff021916908373ffffffffffffffffffffffffffffffffffffffff16021790555050565b60008060008085600180600281111561142b57fe5b60018381548110151561143a57fe5b906000526020600020906005020160000160009054906101000a900460ff16600281111561146457fe5b14151561147057600080fd5b60018881548110151561147f57fe5b906000526020600020906005020160030194506402540be4008580549050101515611538576040517f08c379a00000000000000000000000000000000000000000000000000000000081526004018080602001828103825260258152602001807f566f7465727320636f756e74206d757374206265206c6f776572204d41585f5681526020017f4f5445525300000000000000000000000000000000000000000000000000000081525060400191505060405180910390fd5b600093505b84805490508410156115d5573373ffffffffffffffffffffffffffffffffffffffff16858581548110151561156e57fe5b9060005260206000200160009054906101000a900473ffffffffffffffffffffffffffffffffffffffff1673ffffffffffffffffffffffffffffffffffffffff1614156115c8576115c0888886611676565b83955061166b565b838060010194505061153d565b600180898154811015156115e557fe5b90600052602060002090600502016003013390806001815401808255809150509060018203906000526020600020016000909192909190916101000a81548173ffffffffffffffffffffffffffffffffffffffff021916908373ffffffffffffffffffffffffffffffffffffffff160217905550039250611667888885611676565b8295505b505050505092915050565b8160018481548110151561168657fe5b9060005260206000209060050201600401600083815260200190815260200160002081905550505050565b828054600181600116156101000203166002900490600052602060002090601f016020900481019282601f106116f257805160ff1916838001178555611720565b82800160010185558215611720579182015b8281111561171f578251825591602001919060010190611704565b5b50905061172d919061189b565b5090565b828054828255906000526020600020908101928215611780579160200282015b8281111561177f57825182908051906020019061176f9291906116b1565b5091602001919060010190611751565b5b50905061178d91906118c0565b5090565b82805482825590600052602060002090810192821561180a579160200282015b828111156118095782518260006101000a81548173ffffffffffffffffffffffffffffffffffffffff021916908373ffffffffffffffffffffffffffffffffffffffff160217905550916020019190600101906117b1565b5b50905061181791906118ec565b5090565b828054600181600116156101000203166002900490600052602060002090601f016020900481019282601f1061185c57803560ff191683800117855561188a565b8280016001018555821561188a579182015b8281111561188957823582559160200191906001019061186e565b5b509050611897919061189b565b5090565b6118bd91905b808211156118b95760008160009055506001016118a1565b5090565b90565b6118e991905b808211156118e557600081816118dc919061192f565b506001016118c6565b5090565b90565b61192c91905b8082111561192857600081816101000a81549073ffffffffffffffffffffffffffffffffffffffff0219169055506001016118f2565b5090565b90565b50805460018160011615610100020316600290046000825580601f106119555750611974565b601f016020900490600052602060002090810190611973919061189b565b5b505600a165627a7a7230582058b9eec15f3e1997ebdfdfcb3eef23975f8f9e6a5a9a830f0c8c2aaabed798d20029",
  "source": "pragma solidity ^0.4.19;\n\nimport \"./Ownable.sol\";\n\ncontract VoteFactory is Ownable {\n    modifier ownerOfVote(uint256 _voteId) {\n        require(voteToOwner[_voteId] == msg.sender);\n        _;\n    }\n    modifier stateOf(uint256 _voteId, State _state) {\n        require(votes[_voteId].state == _state);\n        _;\n    }\n\n    event CreateVote(uint256 id, string question);\n    event StartVote(uint256 id);\n    event StopVote(uint256 id);\n\n    enum State {\n        Initial,\n        Started,\n        Stopped\n    }\n\n    uint256 constant MAX_VOTERS = 1e10;\n\n    struct Vote {\n        State state;\n        string question;\n        string[] answers;\n        address[] voters;\n        \n        mapping (uint256 => uint256) voterToAnswer;\n    }\n\n    Vote[] public votes;\n    mapping (uint256 => address) public voteToOwner;\n    \n    function kill() public onlyOwner {\n        selfdestruct(owner);\n    }\n    \n    function createVote(string _question) external {\n        uint256 voteId = votes.push(Vote(State.Initial, _question, new string[](0), new address[](0))) - 1;\n        voteToOwner[voteId] = msg.sender;\n        emit CreateVote(voteId, _question);\n    }\n\n    function addAnswer(uint256 _voteId, string _answer) external ownerOfVote(_voteId) {\n        votes[_voteId].answers.push(_answer);\n    }\n\n    function voteAnswer(uint256 _voteId, uint256 _answerId) public view returns(string) {\n        return votes[_voteId].answers[_answerId];\n    }\n    \n    function startVote(uint256 _voteId) external ownerOfVote(_voteId) {\n        votes[_voteId].state = State.Started;\n        emit StartVote(_voteId);\n    }\n    \n    function stopVote(uint256 _voteId) external ownerOfVote(_voteId) stateOf(_voteId, State.Started) {\n        votes[_voteId].state = State.Stopped;\n        emit StopVote(_voteId);\n    }\n\n    function cast1(uint _voteId, uint _answerId) external stateOf(_voteId, State.Started) returns(uint256) {\n        address[] storage voters = votes[_voteId].voters;\n\n        require(voters.length < MAX_VOTERS, \"Voters count must be lower MAX_VOTERS\");\n\n        for (uint i = 0; i < voters.length; i++)\n            if (voters[i] == msg.sender) {\n                _castVoter(_voteId, _answerId, i);\n                return i;\n            }\n\n        uint voterId = votes[_voteId].voters.push(msg.sender) - 1;            \n        _castVoter(_voteId, _answerId, voterId);\n        return voterId;\n    }\n\n    function cast(uint256 _voteId, uint256 _answerId) external stateOf(_voteId, State.Started) returns(uint256) {\n        require(votes[_voteId].voters.length < MAX_VOTERS, \"Voters count must be lower MAX_VOTERS\");\n\n        uint256 voterId = getVoterId(_voteId);\n        if (voterId < MAX_VOTERS) {\n            _castVoter(_voteId, _answerId, voterId);\n            return voterId;\n        }\n\n        voterId = votes[_voteId].voters.push(msg.sender) - 1;            \n        _castVoter(_voteId, _answerId, voterId);\n        return voterId;\n    }\n\n    function _castVoter(uint256 _voteId, uint256 _answerId, uint256 _voterId) private {\n        votes[_voteId].voterToAnswer[_voterId] = _answerId;\n    }\n\n    function getVoterId(uint256 _voteId) public view returns(uint256) {\n        address[] storage voters = votes[_voteId].voters;\n        for (uint256 i = 0; i < voters.length; i++)\n            if (voters[i] == msg.sender) {\n                return i;\n            }\n\n        return MAX_VOTERS + 1;\n    }\n\n    function results(uint256 _voteId) public view returns(string) {\n        Vote storage vote = votes[_voteId];\n        uint256[] memory result = new uint256[](vote.answers.length);\n\n        for (uint256 i = 0; i < vote.voters.length; i++) {\n            result[vote.voterToAnswer[i]]++;\n        }\n\n        uint256 maxId = 0;\n        uint256 max = result[0];\n\n        for (i = 0; i < result.length; i++) {\n            if (result[i] > max) {\n                maxId = i;\n                max = result[i];\n            }\n        }\n\n        return vote.answers[maxId];\n    }\n\n    function isStopped(uint256 _voteId) external view returns(bool) {\n        return votes[_voteId].state == State.Stopped;\n    }\n    \n}\n",
  "sourcePath": "/Users/alexey/Projects/SmartVote/contracts/VoteFactory.sol",
  "compiler": {
    "name": "solc",
    "version": "0.4.24+commit.e67f0147.Emscripten.clang"
  },
  "schemaVersion": "2.0.1",
  "updatedAt": "2018-07-19T08:54:54.797Z"
}