{
  "contractName": "VoteFactory",
  "abi": [
    {
      "constant": true,
      "inputs": [
        {
          "name": "",
          "type": "address"
        },
        {
          "name": "",
          "type": "uint256"
        }
      ],
      "name": "ownerToVotes",
      "outputs": [
        {
          "name": "",
          "type": "uint256"
        }
      ],
      "payable": false,
      "stateMutability": "view",
      "type": "function"
    },
    {
      "constant": true,
      "inputs": [
        {
          "name": "",
          "type": "uint256"
        }
      ],
      "name": "votes",
      "outputs": [
        {
          "name": "state",
          "type": "uint8"
        },
        {
          "name": "question",
          "type": "string"
        }
      ],
      "payable": false,
      "stateMutability": "view",
      "type": "function"
    },
    {
      "constant": true,
      "inputs": [],
      "name": "owner",
      "outputs": [
        {
          "name": "",
          "type": "address"
        }
      ],
      "payable": false,
      "stateMutability": "view",
      "type": "function"
    },
    {
      "constant": true,
      "inputs": [
        {
          "name": "",
          "type": "uint256"
        }
      ],
      "name": "voteToOwner",
      "outputs": [
        {
          "name": "",
          "type": "address"
        }
      ],
      "payable": false,
      "stateMutability": "view",
      "type": "function"
    },
    {
      "constant": false,
      "inputs": [
        {
          "name": "newOwner",
          "type": "address"
        }
      ],
      "name": "transferOwnership",
      "outputs": [],
      "payable": false,
      "stateMutability": "nonpayable",
      "type": "function"
    },
    {
      "anonymous": false,
      "inputs": [
        {
          "indexed": false,
          "name": "id",
          "type": "uint256"
        },
        {
          "indexed": false,
          "name": "question",
          "type": "string"
        }
      ],
      "name": "CreateVote",
      "type": "event"
    },
    {
      "anonymous": false,
      "inputs": [
        {
          "indexed": false,
          "name": "voteId",
          "type": "uint256"
        },
        {
          "indexed": false,
          "name": "answers",
          "type": "bytes32"
        }
      ],
      "name": "AddAnswer",
      "type": "event"
    },
    {
      "anonymous": false,
      "inputs": [
        {
          "indexed": false,
          "name": "id",
          "type": "uint256"
        }
      ],
      "name": "StartVote",
      "type": "event"
    },
    {
      "anonymous": false,
      "inputs": [
        {
          "indexed": false,
          "name": "id",
          "type": "uint256"
        }
      ],
      "name": "StopVote",
      "type": "event"
    },
    {
      "anonymous": false,
      "inputs": [
        {
          "indexed": true,
          "name": "previousOwner",
          "type": "address"
        },
        {
          "indexed": true,
          "name": "newOwner",
          "type": "address"
        }
      ],
      "name": "OwnershipTransferred",
      "type": "event"
    },
    {
      "constant": false,
      "inputs": [],
      "name": "kill",
      "outputs": [],
      "payable": false,
      "stateMutability": "nonpayable",
      "type": "function"
    },
    {
      "constant": false,
      "inputs": [
        {
          "name": "_question",
          "type": "string"
        }
      ],
      "name": "createVote",
      "outputs": [
        {
          "name": "voteId",
          "type": "uint256"
        }
      ],
      "payable": false,
      "stateMutability": "nonpayable",
      "type": "function"
    },
    {
      "constant": false,
      "inputs": [
        {
          "name": "_question",
          "type": "string"
        },
        {
          "name": "_answers",
          "type": "bytes32[]"
        }
      ],
      "name": "createVote",
      "outputs": [
        {
          "name": "voteId",
          "type": "uint256"
        }
      ],
      "payable": false,
      "stateMutability": "nonpayable",
      "type": "function"
    },
    {
      "constant": false,
      "inputs": [
        {
          "name": "_voteId",
          "type": "uint256"
        },
        {
          "name": "_answer",
          "type": "bytes32"
        }
      ],
      "name": "addAnswer",
      "outputs": [],
      "payable": false,
      "stateMutability": "nonpayable",
      "type": "function"
    },
    {
      "constant": false,
      "inputs": [
        {
          "name": "_voteId",
          "type": "uint256"
        },
        {
          "name": "_answers",
          "type": "bytes32[]"
        }
      ],
      "name": "addAnswers",
      "outputs": [],
      "payable": false,
      "stateMutability": "nonpayable",
      "type": "function"
    },
    {
      "constant": true,
      "inputs": [
        {
          "name": "_voteId",
          "type": "uint256"
        },
        {
          "name": "_answerId",
          "type": "uint256"
        }
      ],
      "name": "voteAnswer",
      "outputs": [
        {
          "name": "",
          "type": "bytes32"
        }
      ],
      "payable": false,
      "stateMutability": "view",
      "type": "function"
    },
    {
      "constant": false,
      "inputs": [
        {
          "name": "_voteId",
          "type": "uint256"
        }
      ],
      "name": "startVote",
      "outputs": [],
      "payable": false,
      "stateMutability": "nonpayable",
      "type": "function"
    },
    {
      "constant": false,
      "inputs": [
        {
          "name": "_voteId",
          "type": "uint256"
        }
      ],
      "name": "stopVote",
      "outputs": [],
      "payable": false,
      "stateMutability": "nonpayable",
      "type": "function"
    },
    {
      "constant": false,
      "inputs": [
        {
          "name": "_voteId",
          "type": "uint256"
        },
        {
          "name": "_answerId",
          "type": "uint256"
        }
      ],
      "name": "cast",
      "outputs": [
        {
          "name": "",
          "type": "uint256"
        }
      ],
      "payable": false,
      "stateMutability": "nonpayable",
      "type": "function"
    },
    {
      "constant": true,
      "inputs": [
        {
          "name": "_voteId",
          "type": "uint256"
        }
      ],
      "name": "getVoterId",
      "outputs": [
        {
          "name": "",
          "type": "uint256"
        }
      ],
      "payable": false,
      "stateMutability": "view",
      "type": "function"
    },
    {
      "constant": true,
      "inputs": [
        {
          "name": "_voteId",
          "type": "uint256"
        }
      ],
      "name": "results",
      "outputs": [
        {
          "name": "",
          "type": "bytes32"
        }
      ],
      "payable": false,
      "stateMutability": "view",
      "type": "function"
    },
    {
      "constant": true,
      "inputs": [
        {
          "name": "_voteId",
          "type": "uint256"
        }
      ],
      "name": "isStopped",
      "outputs": [
        {
          "name": "",
          "type": "bool"
        }
      ],
      "payable": false,
      "stateMutability": "view",
      "type": "function"
    }
  ],
  "bytecode": "0x6080604052336000806101000a81548173ffffffffffffffffffffffffffffffffffffffff021916908373ffffffffffffffffffffffffffffffffffffffff1602179055506117c2806100536000396000f3006080604052600436106100f1576000357c0100000000000000000000000000000000000000000000000000000000900463ffffffff16806313292a02146100f65780631b0c27da146101735780633f220524146101bc57806341c0e1b5146101e957806343ab92b7146102005780635d5a3cae1461022d5780635df813301461028e5780636b7ea125146103495780636f276c991461039c5780638da5cb5b146103e157806392940cc9146104385780639e618f67146104a8578063a2b67c11146104e3578063dd2d9cb214610524578063e6ee3e641461056f578063f2eff98e146105dc578063f2fde38b1461069c575b600080fd5b34801561010257600080fd5b5061015d600480360381019080803590602001908201803590602001908080601f01602080910402602001604051908101604052809392919081815260200183838082843782019150505050505091929192905050506106df565b6040518082815260200191505060405180910390f35b34801561017f57600080fd5b5061019e60048036038101908080359060200190929190505050610986565b60405180826000191660001916815260200191505060405180910390f35b3480156101c857600080fd5b506101e760048036038101908080359060200190929190505050610ae0565b005b3480156101f557600080fd5b506101fe610bca565b005b34801561020c57600080fd5b5061022b60048036038101908080359060200190929190505050610c5f565b005b34801561023957600080fd5b50610278600480360381019080803573ffffffffffffffffffffffffffffffffffffffff16906020019092919080359060200190929190505050610da0565b6040518082815260200191505060405180910390f35b34801561029a57600080fd5b506102b960048036038101908080359060200190929190505050610dd0565b604051808360028111156102c957fe5b60ff16815260200180602001828103825283818151815260200191508051906020019080838360005b8381101561030d5780820151818401526020810190506102f2565b50505050905090810190601f16801561033a5780820380516001836020036101000a031916815260200191505b50935050505060405180910390f35b34801561035557600080fd5b5061037e6004803603810190808035906020019092919080359060200190929190505050610ea8565b60405180826000191660001916815260200191505060405180910390f35b3480156103a857600080fd5b506103c760048036038101908080359060200190929190505050610eea565b604051808215151515815260200191505060405180910390f35b3480156103ed57600080fd5b506103f6610f39565b604051808273ffffffffffffffffffffffffffffffffffffffff1673ffffffffffffffffffffffffffffffffffffffff16815260200191505060405180910390f35b34801561044457600080fd5b506104a66004803603810190808035906020019092919080359060200190820180359060200190808060200260200160405190810160405280939291908181526020018383602002808284378201915050505050509192919290505050610f5e565b005b3480156104b457600080fd5b506104e1600480360381019080803590602001909291908035600019169060200190929190505050611010565b005b3480156104ef57600080fd5b5061050e6004803603810190808035906020019092919050505061111a565b6040518082815260200191505060405180910390f35b34801561053057600080fd5b5061055960048036038101908080359060200190929190803590602001909291905050506111e6565b6040518082815260200191505060405180910390f35b34801561057b57600080fd5b5061059a600480360381019080803590602001909291905050506113cc565b604051808273ffffffffffffffffffffffffffffffffffffffff1673ffffffffffffffffffffffffffffffffffffffff16815260200191505060405180910390f35b3480156105e857600080fd5b50610686600480360381019080803590602001908201803590602001908080601f0160208091040260200160405190810160405280939291908181526020018383808284378201915050505050509192919290803590602001908201803590602001908080602002602001604051908101604052809392919081815260200183836020028082843782019150505050505091929192905050506113ff565b6040518082815260200191505060405180910390f35b3480156106a857600080fd5b506106dd600480360381019080803573ffffffffffffffffffffffffffffffffffffffff16906020019092919050505061141c565b005b6000600180608060405190810160405280600060028111156106fd57fe5b815260200185815260200160006040519080825280602002602001820160405280156107385781602001602082028038833980820191505090505b508152602001600060405190808252806020026020018201604052801561076e5781602001602082028038833980820191505090505b508152509080600181540180825580915050906001820390600052602060002090600502016000909192909190915060008201518160000160006101000a81548160ff021916908360028111156107c157fe5b021790555060208201518160010190805190602001906107e29291906115ac565b5060408201518160020190805190602001906107ff92919061162c565b50606082015181600301908051906020019061081c92919061167f565b505050039050336002600083815260200190815260200160002060006101000a81548173ffffffffffffffffffffffffffffffffffffffff021916908373ffffffffffffffffffffffffffffffffffffffff160217905550600360003373ffffffffffffffffffffffffffffffffffffffff1673ffffffffffffffffffffffffffffffffffffffff1681526020019081526020016000208190806001815401808255809150509060018203906000526020600020016000909192909190915055507fef14945256f5c0916c4a21d0375f338b38047daed1b0be3889493528ce7a8c6581836040518083815260200180602001828103825283818151815260200191508051906020019080838360005b8381101561094657808201518184015260208101905061092b565b50505050905090810190601f1680156109735780820380516001836020036101000a031916815260200191505b50935050505060405180910390a1919050565b6000806060600080600060018781548110151561099f57fe5b9060005260206000209060050201945084600201805490506040519080825280602002602001820160405280156109e55781602001602082028038833980820191505090505b509350600092505b8460030180549050831015610a41578385600401600085815260200190815260200160002054815181101515610a1f57fe5b90602001906020020180518091906001018152505082806001019350506109ed565b60009150836000815181101515610a5457fe5b906020019060200201519050600092505b8351831015610ab857808484815181101515610a7d57fe5b906020019060200201511115610aab578291508383815181101515610a9e57fe5b9060200190602002015190505b8280600101935050610a65565b8460020182815481101515610ac957fe5b906000526020600020015495505050505050919050565b803373ffffffffffffffffffffffffffffffffffffffff166002600083815260200190815260200160002060009054906101000a900473ffffffffffffffffffffffffffffffffffffffff1673ffffffffffffffffffffffffffffffffffffffff16141515610b4e57600080fd5b60018083815481101515610b5e57fe5b906000526020600020906005020160000160006101000a81548160ff02191690836002811115610b8a57fe5b02179055507f33c2d6285ba1442f7dd954820743aacec7468bc52e1671024b948f48f1322640826040518082815260200191505060405180910390a15050565b6000809054906101000a900473ffffffffffffffffffffffffffffffffffffffff1673ffffffffffffffffffffffffffffffffffffffff163373ffffffffffffffffffffffffffffffffffffffff16141515610c2557600080fd5b6000809054906101000a900473ffffffffffffffffffffffffffffffffffffffff1673ffffffffffffffffffffffffffffffffffffffff16ff5b803373ffffffffffffffffffffffffffffffffffffffff166002600083815260200190815260200160002060009054906101000a900473ffffffffffffffffffffffffffffffffffffffff1673ffffffffffffffffffffffffffffffffffffffff16141515610ccd57600080fd5b816001806002811115610cdc57fe5b600183815481101515610ceb57fe5b906000526020600020906005020160000160009054906101000a900460ff166002811115610d1557fe5b141515610d2157600080fd5b6002600185815481101515610d3257fe5b906000526020600020906005020160000160006101000a81548160ff02191690836002811115610d5e57fe5b02179055507fe8365e88851bb4b0648d3337ec1cdd50ad29dbcbd22975d7412250ae530be7d3846040518082815260200191505060405180910390a150505050565b600360205281600052604060002081815481101515610dbb57fe5b90600052602060002001600091509150505481565b600181815481101515610ddf57fe5b90600052602060002090600502016000915090508060000160009054906101000a900460ff1690806001018054600181600116156101000203166002900480601f016020809104026020016040519081016040528092919081815260200182805460018160011615610100020316600290048015610e9e5780601f10610e7357610100808354040283529160200191610e9e565b820191906000526020600020905b815481529060010190602001808311610e8157829003601f168201915b5050505050905082565b6000600183815481101515610eb957fe5b906000526020600020906005020160020182815481101515610ed757fe5b9060005260206000200154905092915050565b6000600280811115610ef857fe5b600183815481101515610f0757fe5b906000526020600020906005020160000160009054906101000a900460ff166002811115610f3157fe5b149050919050565b6000809054906101000a900473ffffffffffffffffffffffffffffffffffffffff1681565b6000823373ffffffffffffffffffffffffffffffffffffffff166002600083815260200190815260200160002060009054906101000a900473ffffffffffffffffffffffffffffffffffffffff1673ffffffffffffffffffffffffffffffffffffffff16141515610fce57600080fd5b600091505b825182101561100a57610ffd848484815181101515610fee57fe5b90602001906020020151611010565b8180600101925050610fd3565b50505050565b813373ffffffffffffffffffffffffffffffffffffffff166002600083815260200190815260200160002060009054906101000a900473ffffffffffffffffffffffffffffffffffffffff1673ffffffffffffffffffffffffffffffffffffffff1614151561107e57600080fd5b60018381548110151561108d57fe5b90600052602060002090600502016002018290806001815401808255809150509060018203906000526020600020016000909192909190915090600019169055507fa34176c107fa34629cbf58134d5a190898502131483be9302b55818edaf2c00383836040518083815260200182600019166000191681526020019250505060405180910390a1505050565b600080600060018481548110151561112e57fe5b90600052602060002090600502016003019150600090505b81805490508110156111d3573373ffffffffffffffffffffffffffffffffffffffff16828281548110151561117757fe5b9060005260206000200160009054906101000a900473ffffffffffffffffffffffffffffffffffffffff1673ffffffffffffffffffffffffffffffffffffffff1614156111c6578092506111df565b8080600101915050611146565b60016402540be4000192505b5050919050565b6000808360018060028111156111f857fe5b60018381548110151561120757fe5b906000526020600020906005020160000160009054906101000a900460ff16600281111561123157fe5b14151561123d57600080fd5b6402540be40060018781548110151561125257fe5b906000526020600020906005020160030180549050101515611302576040517f08c379a00000000000000000000000000000000000000000000000000000000081526004018080602001828103825260258152602001807f566f7465727320636f756e74206d757374206265206c6f776572204d41585f5681526020017f4f5445525300000000000000000000000000000000000000000000000000000081525060400191505060405180910390fd5b61130b8661111a565b92506402540be40083101561132d57611325868685611571565b8293506113c3565b6001808781548110151561133d57fe5b90600052602060002090600502016003013390806001815401808255809150509060018203906000526020600020016000909192909190916101000a81548173ffffffffffffffffffffffffffffffffffffffff021916908373ffffffffffffffffffffffffffffffffffffffff1602179055500392506113bf868685611571565b8293505b50505092915050565b60026020528060005260406000206000915054906101000a900473ffffffffffffffffffffffffffffffffffffffff1681565b600061140a836106df565b90506114168183610f5e565b92915050565b6000809054906101000a900473ffffffffffffffffffffffffffffffffffffffff1673ffffffffffffffffffffffffffffffffffffffff163373ffffffffffffffffffffffffffffffffffffffff1614151561147757600080fd5b600073ffffffffffffffffffffffffffffffffffffffff168173ffffffffffffffffffffffffffffffffffffffff16141515156114b357600080fd5b8073ffffffffffffffffffffffffffffffffffffffff166000809054906101000a900473ffffffffffffffffffffffffffffffffffffffff1673ffffffffffffffffffffffffffffffffffffffff167f8be0079c531659141344cd1fd0a4f28419497f9722a3daafe3b4186f6b6457e060405160405180910390a3806000806101000a81548173ffffffffffffffffffffffffffffffffffffffff021916908373ffffffffffffffffffffffffffffffffffffffff16021790555050565b8160018481548110151561158157fe5b9060005260206000209060050201600401600083815260200190815260200160002081905550505050565b828054600181600116156101000203166002900490600052602060002090601f016020900481019282601f106115ed57805160ff191683800117855561161b565b8280016001018555821561161b579182015b8281111561161a5782518255916020019190600101906115ff565b5b5090506116289190611709565b5090565b82805482825590600052602060002090810192821561166e579160200282015b8281111561166d57825182906000191690559160200191906001019061164c565b5b50905061167b919061172e565b5090565b8280548282559060005260206000209081019282156116f8579160200282015b828111156116f75782518260006101000a81548173ffffffffffffffffffffffffffffffffffffffff021916908373ffffffffffffffffffffffffffffffffffffffff1602179055509160200191906001019061169f565b5b5090506117059190611753565b5090565b61172b91905b8082111561172757600081600090555060010161170f565b5090565b90565b61175091905b8082111561174c576000816000905550600101611734565b5090565b90565b61179391905b8082111561178f57600081816101000a81549073ffffffffffffffffffffffffffffffffffffffff021916905550600101611759565b5090565b905600a165627a7a72305820cf9eb466f62469085f9c2411d1bbe68529a38244f11443e780029014cc3f64c50029",
  "source": "pragma solidity ^0.4.24;\n\nimport \"./Ownable.sol\";\n\ncontract VoteFactory is Ownable {\n    modifier ownerOfVote(uint256 _voteId) {\n        require(voteToOwner[_voteId] == msg.sender);\n        _;\n    }\n    modifier stateOf(uint256 _voteId, State _state) {\n        require(votes[_voteId].state == _state);\n        _;\n    }\n\n    event CreateVote(uint256 id, string question);\n    event AddAnswer(uint256 voteId, bytes32 answers);\n    event StartVote(uint256 id);\n    event StopVote(uint256 id);\n\n    enum State {\n        Initial,\n        Started,\n        Stopped\n    }\n\n    uint256 constant MAX_VOTERS = 1e10;\n\n    struct Vote {\n        State state;\n        string question;\n        bytes32[] answers;\n        address[] voters;\n\n        mapping(uint256 => uint256) voterToAnswer;\n    }\n\n    Vote[] public votes;\n    mapping(uint256 => address) public voteToOwner;\n    mapping(address => uint256[]) public ownerToVotes;\n\n    function kill() public onlyOwner {\n        selfdestruct(owner);\n    }\n\n    function createVote(string _question) public returns(uint256 voteId) {\n        voteId = votes.push(Vote(State.Initial, _question, new bytes32[](0), new address[](0))) - 1;\n        voteToOwner[voteId] = msg.sender;\n        ownerToVotes[msg.sender].push(voteId);\n        emit CreateVote(voteId, _question);\n    }\n\n    function createVote(string _question, bytes32[] _answers) public returns(uint256 voteId) {\n        voteId = createVote(_question);\n        addAnswers(voteId, _answers);\n    }\n\n    function addAnswer(uint256 _voteId, bytes32 _answer) public ownerOfVote(_voteId) {\n        votes[_voteId].answers.push(_answer);\n        emit AddAnswer(_voteId, _answer);\n    }\n\n    function addAnswers(uint256 _voteId, bytes32[] _answers) public ownerOfVote(_voteId) {\n        for (uint256 i = 0; i < _answers.length; i++) {\n            addAnswer(_voteId, _answers[i]);\n        }\n    }\n\n    function voteAnswer(uint256 _voteId, uint256 _answerId) public view returns(bytes32) {\n        return votes[_voteId].answers[_answerId];\n    }\n\n    function startVote(uint256 _voteId) external ownerOfVote(_voteId) {\n        votes[_voteId].state = State.Started;\n        emit StartVote(_voteId);\n    }\n\n    function stopVote(uint256 _voteId) external ownerOfVote(_voteId) stateOf(_voteId, State.Started) {\n        votes[_voteId].state = State.Stopped;\n        emit StopVote(_voteId);\n    }\n\n    function cast(uint256 _voteId, uint256 _answerId) external stateOf(_voteId, State.Started) returns(uint256) {\n        require(votes[_voteId].voters.length < MAX_VOTERS, \"Voters count must be lower MAX_VOTERS\");\n\n        uint256 voterId = getVoterId(_voteId);\n        if (voterId < MAX_VOTERS) {\n            _castVoter(_voteId, _answerId, voterId);\n            return voterId;\n        }\n\n        voterId = votes[_voteId].voters.push(msg.sender) - 1;\n        _castVoter(_voteId, _answerId, voterId);\n        return voterId;\n    }\n\n    function _castVoter(uint256 _voteId, uint256 _answerId, uint256 _voterId) private {\n        votes[_voteId].voterToAnswer[_voterId] = _answerId;\n    }\n\n    function getVoterId(uint256 _voteId) public view returns(uint256) {\n        address[] storage voters = votes[_voteId].voters;\n        for (uint256 i = 0; i < voters.length; i++)\n            if (voters[i] == msg.sender) {\n                return i;\n            }\n\n        return MAX_VOTERS + 1;\n    }\n\n    function results(uint256 _voteId) public view returns(bytes32) {\n        Vote storage vote = votes[_voteId];\n        uint256[] memory result = new uint256[](vote.answers.length);\n\n        for (uint256 i = 0; i < vote.voters.length; i++) {\n            result[vote.voterToAnswer[i]]++;\n        }\n\n        uint256 maxId = 0;\n        uint256 max = result[0];\n\n        for (i = 0; i < result.length; i++) {\n            if (result[i] > max) {\n                maxId = i;\n                max = result[i];\n            }\n        }\n\n        return vote.answers[maxId];\n    }\n\n    function isStopped(uint256 _voteId) external view returns(bool) {\n        return votes[_voteId].state == State.Stopped;\n    }\n\n}",
  "sourcePath": "/Users/alexey/Projects/SmartVote/contracts/VoteFactory.sol",
  "compiler": {
    "name": "solc",
    "version": "0.4.24+commit.e67f0147.Emscripten.clang"
  },
  "schemaVersion": "2.0.1",
  "updatedAt": "2018-08-25T18:35:36.034Z"
}