{
  "contractName": "VoteFactory",
  "abi": [
    {
      "constant": true,
      "inputs": [
        {
          "name": "",
          "type": "address"
        },
        {
          "name": "",
          "type": "uint256"
        }
      ],
      "name": "ownerToVotes",
      "outputs": [
        {
          "name": "",
          "type": "uint256"
        }
      ],
      "payable": false,
      "stateMutability": "view",
      "type": "function"
    },
    {
      "constant": true,
      "inputs": [
        {
          "name": "",
          "type": "uint256"
        }
      ],
      "name": "votes",
      "outputs": [
        {
          "name": "state",
          "type": "uint8"
        },
        {
          "name": "question",
          "type": "string"
        }
      ],
      "payable": false,
      "stateMutability": "view",
      "type": "function"
    },
    {
      "constant": true,
      "inputs": [],
      "name": "owner",
      "outputs": [
        {
          "name": "",
          "type": "address"
        }
      ],
      "payable": false,
      "stateMutability": "view",
      "type": "function"
    },
    {
      "constant": true,
      "inputs": [
        {
          "name": "",
          "type": "uint256"
        }
      ],
      "name": "voteToOwner",
      "outputs": [
        {
          "name": "",
          "type": "address"
        }
      ],
      "payable": false,
      "stateMutability": "view",
      "type": "function"
    },
    {
      "constant": false,
      "inputs": [
        {
          "name": "newOwner",
          "type": "address"
        }
      ],
      "name": "transferOwnership",
      "outputs": [],
      "payable": false,
      "stateMutability": "nonpayable",
      "type": "function"
    },
    {
      "anonymous": false,
      "inputs": [
        {
          "indexed": false,
          "name": "id",
          "type": "uint256"
        },
        {
          "indexed": false,
          "name": "question",
          "type": "string"
        }
      ],
      "name": "CreateVote",
      "type": "event"
    },
    {
      "anonymous": false,
      "inputs": [
        {
          "indexed": false,
          "name": "voteId",
          "type": "uint256"
        },
        {
          "indexed": false,
          "name": "answers",
          "type": "bytes32"
        }
      ],
      "name": "AddAnswer",
      "type": "event"
    },
    {
      "anonymous": false,
      "inputs": [
        {
          "indexed": false,
          "name": "id",
          "type": "uint256"
        }
      ],
      "name": "StartVote",
      "type": "event"
    },
    {
      "anonymous": false,
      "inputs": [
        {
          "indexed": false,
          "name": "id",
          "type": "uint256"
        }
      ],
      "name": "StopVote",
      "type": "event"
    },
    {
      "anonymous": false,
      "inputs": [
        {
          "indexed": true,
          "name": "previousOwner",
          "type": "address"
        },
        {
          "indexed": true,
          "name": "newOwner",
          "type": "address"
        }
      ],
      "name": "OwnershipTransferred",
      "type": "event"
    },
    {
      "constant": false,
      "inputs": [],
      "name": "kill",
      "outputs": [],
      "payable": false,
      "stateMutability": "nonpayable",
      "type": "function"
    },
    {
      "constant": false,
      "inputs": [
        {
          "name": "_question",
          "type": "string"
        }
      ],
      "name": "createVote",
      "outputs": [
        {
          "name": "voteId",
          "type": "uint256"
        }
      ],
      "payable": false,
      "stateMutability": "nonpayable",
      "type": "function"
    },
    {
      "constant": false,
      "inputs": [
        {
          "name": "_question",
          "type": "string"
        },
        {
          "name": "_answers",
          "type": "bytes32[]"
        }
      ],
      "name": "createVote",
      "outputs": [
        {
          "name": "voteId",
          "type": "uint256"
        }
      ],
      "payable": false,
      "stateMutability": "nonpayable",
      "type": "function"
    },
    {
      "constant": false,
      "inputs": [
        {
          "name": "_voteId",
          "type": "uint256"
        },
        {
          "name": "_answer",
          "type": "bytes32"
        }
      ],
      "name": "addAnswer",
      "outputs": [],
      "payable": false,
      "stateMutability": "nonpayable",
      "type": "function"
    },
    {
      "constant": false,
      "inputs": [
        {
          "name": "_voteId",
          "type": "uint256"
        },
        {
          "name": "_answers",
          "type": "bytes32[]"
        }
      ],
      "name": "addAnswers",
      "outputs": [],
      "payable": false,
      "stateMutability": "nonpayable",
      "type": "function"
    },
    {
      "constant": true,
      "inputs": [
        {
          "name": "_voteId",
          "type": "uint256"
        },
        {
          "name": "_answerId",
          "type": "uint256"
        }
      ],
      "name": "voteAnswer",
      "outputs": [
        {
          "name": "",
          "type": "bytes32"
        }
      ],
      "payable": false,
      "stateMutability": "view",
      "type": "function"
    },
    {
      "constant": false,
      "inputs": [
        {
          "name": "_voteId",
          "type": "uint256"
        }
      ],
      "name": "startVote",
      "outputs": [],
      "payable": false,
      "stateMutability": "nonpayable",
      "type": "function"
    },
    {
      "constant": false,
      "inputs": [
        {
          "name": "_voteId",
          "type": "uint256"
        }
      ],
      "name": "stopVote",
      "outputs": [],
      "payable": false,
      "stateMutability": "nonpayable",
      "type": "function"
    },
    {
      "constant": false,
      "inputs": [
        {
          "name": "_voteId",
          "type": "uint256"
        },
        {
          "name": "_answerId",
          "type": "uint256"
        }
      ],
      "name": "cast",
      "outputs": [
        {
          "name": "",
          "type": "uint256"
        }
      ],
      "payable": false,
      "stateMutability": "nonpayable",
      "type": "function"
    },
    {
      "constant": true,
      "inputs": [
        {
          "name": "_voteId",
          "type": "uint256"
        }
      ],
      "name": "getVoterId",
      "outputs": [
        {
          "name": "",
          "type": "uint256"
        }
      ],
      "payable": false,
      "stateMutability": "view",
      "type": "function"
    },
    {
      "constant": true,
      "inputs": [
        {
          "name": "_voteId",
          "type": "uint256"
        }
      ],
      "name": "results",
      "outputs": [
        {
          "name": "",
          "type": "bytes32"
        }
      ],
      "payable": false,
      "stateMutability": "view",
      "type": "function"
    },
    {
      "constant": true,
      "inputs": [
        {
          "name": "_voteId",
          "type": "uint256"
        }
      ],
      "name": "isStopped",
      "outputs": [
        {
          "name": "",
          "type": "bool"
        }
      ],
      "payable": false,
      "stateMutability": "view",
      "type": "function"
    },
    {
      "constant": true,
      "inputs": [
        {
          "name": "_voteId",
          "type": "uint256"
        }
      ],
      "name": "getVote",
      "outputs": [
        {
          "name": "",
          "type": "uint8"
        },
        {
          "name": "",
          "type": "string"
        },
        {
          "name": "",
          "type": "bytes32[]"
        },
        {
          "name": "",
          "type": "int256[]"
        }
      ],
      "payable": false,
      "stateMutability": "view",
      "type": "function"
    }
  ],
  "bytecode": "0x6080604052336000806101000a81548173ffffffffffffffffffffffffffffffffffffffff021916908373ffffffffffffffffffffffffffffffffffffffff160217905550611af6806100536000396000f3006080604052600436106100fc576000357c0100000000000000000000000000000000000000000000000000000000900463ffffffff16806313292a02146101015780631b0c27da1461017e5780633f220524146101c757806341c0e1b5146101f457806343ab92b71461020b5780635a55c1f0146102385780635d5a3cae146103835780635df81330146103e45780636b7ea1251461049f5780636f276c99146104f25780638da5cb5b1461053757806392940cc91461058e5780639e618f67146105fe578063a2b67c1114610639578063dd2d9cb21461067a578063e6ee3e64146106c5578063f2eff98e14610732578063f2fde38b146107f2575b600080fd5b34801561010d57600080fd5b50610168600480360381019080803590602001908201803590602001908080601f0160208091040260200160405190810160405280939291908181526020018383808284378201915050505050509192919290505050610835565b6040518082815260200191505060405180910390f35b34801561018a57600080fd5b506101a960048036038101908080359060200190929190505050610adc565b60405180826000191660001916815260200191505060405180910390f35b3480156101d357600080fd5b506101f260048036038101908080359060200190929190505050610c36565b005b34801561020057600080fd5b50610209610d20565b005b34801561021757600080fd5b5061023660048036038101908080359060200190929190505050610db5565b005b34801561024457600080fd5b5061026360048036038101908080359060200190929190505050610ef6565b6040518085600281111561027357fe5b60ff168152602001806020018060200180602001848103845287818151815260200191508051906020019080838360005b838110156102bf5780820151818401526020810190506102a4565b50505050905090810190601f1680156102ec5780820380516001836020036101000a031916815260200191505b50848103835286818151815260200191508051906020019060200280838360005b8381101561032857808201518184015260208101905061030d565b50505050905001848103825285818151815260200191508051906020019060200280838360005b8381101561036a57808201518184015260208101905061034f565b5050505090500197505050505050505060405180910390f35b34801561038f57600080fd5b506103ce600480360381019080803573ffffffffffffffffffffffffffffffffffffffff169060200190929190803590602001909291905050506110d4565b6040518082815260200191505060405180910390f35b3480156103f057600080fd5b5061040f60048036038101908080359060200190929190505050611104565b6040518083600281111561041f57fe5b60ff16815260200180602001828103825283818151815260200191508051906020019080838360005b83811015610463578082015181840152602081019050610448565b50505050905090810190601f1680156104905780820380516001836020036101000a031916815260200191505b50935050505060405180910390f35b3480156104ab57600080fd5b506104d460048036038101908080359060200190929190803590602001909291905050506111dc565b60405180826000191660001916815260200191505060405180910390f35b3480156104fe57600080fd5b5061051d6004803603810190808035906020019092919050505061121e565b604051808215151515815260200191505060405180910390f35b34801561054357600080fd5b5061054c61126d565b604051808273ffffffffffffffffffffffffffffffffffffffff1673ffffffffffffffffffffffffffffffffffffffff16815260200191505060405180910390f35b34801561059a57600080fd5b506105fc6004803603810190808035906020019092919080359060200190820180359060200190808060200260200160405190810160405280939291908181526020018383602002808284378201915050505050509192919290505050611292565b005b34801561060a57600080fd5b50610637600480360381019080803590602001909291908035600019169060200190929190505050611344565b005b34801561064557600080fd5b506106646004803603810190808035906020019092919050505061144e565b6040518082815260200191505060405180910390f35b34801561068657600080fd5b506106af600480360381019080803590602001909291908035906020019092919050505061151a565b6040518082815260200191505060405180910390f35b3480156106d157600080fd5b506106f060048036038101908080359060200190929190505050611700565b604051808273ffffffffffffffffffffffffffffffffffffffff1673ffffffffffffffffffffffffffffffffffffffff16815260200191505060405180910390f35b34801561073e57600080fd5b506107dc600480360381019080803590602001908201803590602001908080601f016020809104026020016040519081016040528093929190818152602001838380828437820191505050505050919291929080359060200190820180359060200190808060200260200160405190810160405280939291908181526020018383602002808284378201915050505050509192919290505050611733565b6040518082815260200191505060405180910390f35b3480156107fe57600080fd5b50610833600480360381019080803573ffffffffffffffffffffffffffffffffffffffff169060200190929190505050611750565b005b60006001806080604051908101604052806000600281111561085357fe5b8152602001858152602001600060405190808252806020026020018201604052801561088e5781602001602082028038833980820191505090505b50815260200160006040519080825280602002602001820160405280156108c45781602001602082028038833980820191505090505b508152509080600181540180825580915050906001820390600052602060002090600502016000909192909190915060008201518160000160006101000a81548160ff0219169083600281111561091757fe5b021790555060208201518160010190805190602001906109389291906118e0565b506040820151816002019080519060200190610955929190611960565b5060608201518160030190805190602001906109729291906119b3565b505050039050336002600083815260200190815260200160002060006101000a81548173ffffffffffffffffffffffffffffffffffffffff021916908373ffffffffffffffffffffffffffffffffffffffff160217905550600360003373ffffffffffffffffffffffffffffffffffffffff1673ffffffffffffffffffffffffffffffffffffffff1681526020019081526020016000208190806001815401808255809150509060018203906000526020600020016000909192909190915055507fef14945256f5c0916c4a21d0375f338b38047daed1b0be3889493528ce7a8c6581836040518083815260200180602001828103825283818151815260200191508051906020019080838360005b83811015610a9c578082015181840152602081019050610a81565b50505050905090810190601f168015610ac95780820380516001836020036101000a031916815260200191505b50935050505060405180910390a1919050565b60008060606000806000600187815481101515610af557fe5b906000526020600020906005020194508460020180549050604051908082528060200260200182016040528015610b3b5781602001602082028038833980820191505090505b509350600092505b8460030180549050831015610b97578385600401600085815260200190815260200160002054815181101515610b7557fe5b9060200190602002018051809190600101815250508280600101935050610b43565b60009150836000815181101515610baa57fe5b906020019060200201519050600092505b8351831015610c0e57808484815181101515610bd357fe5b906020019060200201511115610c01578291508383815181101515610bf457fe5b9060200190602002015190505b8280600101935050610bbb565b8460020182815481101515610c1f57fe5b906000526020600020015495505050505050919050565b803373ffffffffffffffffffffffffffffffffffffffff166002600083815260200190815260200160002060009054906101000a900473ffffffffffffffffffffffffffffffffffffffff1673ffffffffffffffffffffffffffffffffffffffff16141515610ca457600080fd5b60018083815481101515610cb457fe5b906000526020600020906005020160000160006101000a81548160ff02191690836002811115610ce057fe5b02179055507f33c2d6285ba1442f7dd954820743aacec7468bc52e1671024b948f48f1322640826040518082815260200191505060405180910390a15050565b6000809054906101000a900473ffffffffffffffffffffffffffffffffffffffff1673ffffffffffffffffffffffffffffffffffffffff163373ffffffffffffffffffffffffffffffffffffffff16141515610d7b57600080fd5b6000809054906101000a900473ffffffffffffffffffffffffffffffffffffffff1673ffffffffffffffffffffffffffffffffffffffff16ff5b803373ffffffffffffffffffffffffffffffffffffffff166002600083815260200190815260200160002060009054906101000a900473ffffffffffffffffffffffffffffffffffffffff1673ffffffffffffffffffffffffffffffffffffffff16141515610e2357600080fd5b816001806002811115610e3257fe5b600183815481101515610e4157fe5b906000526020600020906005020160000160009054906101000a900460ff166002811115610e6b57fe5b141515610e7757600080fd5b6002600185815481101515610e8857fe5b906000526020600020906005020160000160006101000a81548160ff02191690836002811115610eb457fe5b02179055507fe8365e88851bb4b0648d3337ec1cdd50ad29dbcbd22975d7412250ae530be7d3846040518082815260200191505060405180910390a150505050565b60006060806060600060606000600188815481101515610f1257fe5b906000526020600020906005020192508260020180549050604051908082528060200260200182016040528015610f585781602001602082028038833980820191505090505b509150600090505b8260030180549050811015610fb55760018284600401600084815260200190815260200160002054815181101515610f9457fe5b90602001906020020181815101915081815250508080600101915050610f60565b8260000160009054906101000a900460ff16836001018460020184828054600181600116156101000203166002900480601f0160208091040260200160405190810160405280929190818152602001828054600181600116156101000203166002900480156110655780601f1061103a57610100808354040283529160200191611065565b820191906000526020600020905b81548152906001019060200180831161104857829003601f168201915b50505050509250818054806020026020016040519081016040528092919081815260200182805480156110bb57602002820191906000526020600020905b815460001916815260200190600101908083116110a3575b5050505050915096509650965096505050509193509193565b6003602052816000526040600020818154811015156110ef57fe5b90600052602060002001600091509150505481565b60018181548110151561111357fe5b90600052602060002090600502016000915090508060000160009054906101000a900460ff1690806001018054600181600116156101000203166002900480601f0160208091040260200160405190810160405280929190818152602001828054600181600116156101000203166002900480156111d25780601f106111a7576101008083540402835291602001916111d2565b820191906000526020600020905b8154815290600101906020018083116111b557829003601f168201915b5050505050905082565b60006001838154811015156111ed57fe5b90600052602060002090600502016002018281548110151561120b57fe5b9060005260206000200154905092915050565b600060028081111561122c57fe5b60018381548110151561123b57fe5b906000526020600020906005020160000160009054906101000a900460ff16600281111561126557fe5b149050919050565b6000809054906101000a900473ffffffffffffffffffffffffffffffffffffffff1681565b6000823373ffffffffffffffffffffffffffffffffffffffff166002600083815260200190815260200160002060009054906101000a900473ffffffffffffffffffffffffffffffffffffffff1673ffffffffffffffffffffffffffffffffffffffff1614151561130257600080fd5b600091505b825182101561133e5761133184848481518110151561132257fe5b90602001906020020151611344565b8180600101925050611307565b50505050565b813373ffffffffffffffffffffffffffffffffffffffff166002600083815260200190815260200160002060009054906101000a900473ffffffffffffffffffffffffffffffffffffffff1673ffffffffffffffffffffffffffffffffffffffff161415156113b257600080fd5b6001838154811015156113c157fe5b90600052602060002090600502016002018290806001815401808255809150509060018203906000526020600020016000909192909190915090600019169055507fa34176c107fa34629cbf58134d5a190898502131483be9302b55818edaf2c00383836040518083815260200182600019166000191681526020019250505060405180910390a1505050565b600080600060018481548110151561146257fe5b90600052602060002090600502016003019150600090505b8180549050811015611507573373ffffffffffffffffffffffffffffffffffffffff1682828154811015156114ab57fe5b9060005260206000200160009054906101000a900473ffffffffffffffffffffffffffffffffffffffff1673ffffffffffffffffffffffffffffffffffffffff1614156114fa57809250611513565b808060010191505061147a565b60016402540be4000192505b5050919050565b60008083600180600281111561152c57fe5b60018381548110151561153b57fe5b906000526020600020906005020160000160009054906101000a900460ff16600281111561156557fe5b14151561157157600080fd5b6402540be40060018781548110151561158657fe5b906000526020600020906005020160030180549050101515611636576040517f08c379a00000000000000000000000000000000000000000000000000000000081526004018080602001828103825260258152602001807f566f7465727320636f756e74206d757374206265206c6f776572204d41585f5681526020017f4f5445525300000000000000000000000000000000000000000000000000000081525060400191505060405180910390fd5b61163f8661144e565b92506402540be400831015611661576116598686856118a5565b8293506116f7565b6001808781548110151561167157fe5b90600052602060002090600502016003013390806001815401808255809150509060018203906000526020600020016000909192909190916101000a81548173ffffffffffffffffffffffffffffffffffffffff021916908373ffffffffffffffffffffffffffffffffffffffff1602179055500392506116f38686856118a5565b8293505b50505092915050565b60026020528060005260406000206000915054906101000a900473ffffffffffffffffffffffffffffffffffffffff1681565b600061173e83610835565b905061174a8183611292565b92915050565b6000809054906101000a900473ffffffffffffffffffffffffffffffffffffffff1673ffffffffffffffffffffffffffffffffffffffff163373ffffffffffffffffffffffffffffffffffffffff161415156117ab57600080fd5b600073ffffffffffffffffffffffffffffffffffffffff168173ffffffffffffffffffffffffffffffffffffffff16141515156117e757600080fd5b8073ffffffffffffffffffffffffffffffffffffffff166000809054906101000a900473ffffffffffffffffffffffffffffffffffffffff1673ffffffffffffffffffffffffffffffffffffffff167f8be0079c531659141344cd1fd0a4f28419497f9722a3daafe3b4186f6b6457e060405160405180910390a3806000806101000a81548173ffffffffffffffffffffffffffffffffffffffff021916908373ffffffffffffffffffffffffffffffffffffffff16021790555050565b816001848154811015156118b557fe5b9060005260206000209060050201600401600083815260200190815260200160002081905550505050565b828054600181600116156101000203166002900490600052602060002090601f016020900481019282601f1061192157805160ff191683800117855561194f565b8280016001018555821561194f579182015b8281111561194e578251825591602001919060010190611933565b5b50905061195c9190611a3d565b5090565b8280548282559060005260206000209081019282156119a2579160200282015b828111156119a1578251829060001916905591602001919060010190611980565b5b5090506119af9190611a62565b5090565b828054828255906000526020600020908101928215611a2c579160200282015b82811115611a2b5782518260006101000a81548173ffffffffffffffffffffffffffffffffffffffff021916908373ffffffffffffffffffffffffffffffffffffffff160217905550916020019190600101906119d3565b5b509050611a399190611a87565b5090565b611a5f91905b80821115611a5b576000816000905550600101611a43565b5090565b90565b611a8491905b80821115611a80576000816000905550600101611a68565b5090565b90565b611ac791905b80821115611ac357600081816101000a81549073ffffffffffffffffffffffffffffffffffffffff021916905550600101611a8d565b5090565b905600a165627a7a72305820b59310faad51e778db74d41de3c2f8ee56fd7f50016aa7aca29ed9cb854f230b0029",
  "source": "pragma solidity ^0.4.24;\n\nimport \"./Ownable.sol\";\n\ncontract VoteFactory is Ownable {\n    modifier ownerOfVote(uint256 _voteId) {\n        require(voteToOwner[_voteId] == msg.sender);\n        _;\n    }\n    modifier stateOf(uint256 _voteId, State _state) {\n        require(votes[_voteId].state == _state);\n        _;\n    }\n\n    event CreateVote(uint256 id, string question);\n    event AddAnswer(uint256 voteId, bytes32 answers);\n    event StartVote(uint256 id);\n    event StopVote(uint256 id);\n\n    enum State {\n        Initial,\n        Started,\n        Stopped\n    }\n\n    uint256 constant MAX_VOTERS = 1e10;\n\n    struct Vote {\n        State state;\n        string question;\n        bytes32[] answers;\n        address[] voters;\n\n        mapping(uint256 => uint256) voterToAnswer;\n    }\n\n    Vote[] public votes;\n    mapping(uint256 => address) public voteToOwner;\n    mapping(address => uint256[]) public ownerToVotes;\n\n    function kill() public onlyOwner {\n        selfdestruct(owner);\n    }\n\n    function createVote(string _question) public returns(uint256 voteId) {\n        voteId = votes.push(Vote(State.Initial, _question, new bytes32[](0), new address[](0))) - 1;\n        voteToOwner[voteId] = msg.sender;\n        ownerToVotes[msg.sender].push(voteId);\n        emit CreateVote(voteId, _question);\n    }\n\n    function createVote(string _question, bytes32[] _answers) public returns(uint256 voteId) {\n        voteId = createVote(_question);\n        addAnswers(voteId, _answers);\n    }\n\n    function addAnswer(uint256 _voteId, bytes32 _answer) public ownerOfVote(_voteId) {\n        votes[_voteId].answers.push(_answer);\n        emit AddAnswer(_voteId, _answer);\n    }\n\n    function addAnswers(uint256 _voteId, bytes32[] _answers) public ownerOfVote(_voteId) {\n        for (uint256 i = 0; i < _answers.length; i++) {\n            addAnswer(_voteId, _answers[i]);\n        }\n    }\n\n    function voteAnswer(uint256 _voteId, uint256 _answerId) public view returns(bytes32) {\n        return votes[_voteId].answers[_answerId];\n    }\n\n    function startVote(uint256 _voteId) external ownerOfVote(_voteId) {\n        votes[_voteId].state = State.Started;\n        emit StartVote(_voteId);\n    }\n\n    function stopVote(uint256 _voteId) external ownerOfVote(_voteId) stateOf(_voteId, State.Started) {\n        votes[_voteId].state = State.Stopped;\n        emit StopVote(_voteId);\n    }\n\n    function cast(uint256 _voteId, uint256 _answerId) external stateOf(_voteId, State.Started) returns(uint256) {\n        require(votes[_voteId].voters.length < MAX_VOTERS, \"Voters count must be lower MAX_VOTERS\");\n\n        uint256 voterId = getVoterId(_voteId);\n        if (voterId < MAX_VOTERS) {\n            _castVoter(_voteId, _answerId, voterId);\n            return voterId;\n        }\n\n        voterId = votes[_voteId].voters.push(msg.sender) - 1;\n        _castVoter(_voteId, _answerId, voterId);\n        return voterId;\n    }\n\n    function _castVoter(uint256 _voteId, uint256 _answerId, uint256 _voterId) private {\n        votes[_voteId].voterToAnswer[_voterId] = _answerId;\n    }\n\n    function getVoterId(uint256 _voteId) public view returns(uint256) {\n        address[] storage voters = votes[_voteId].voters;\n        for (uint256 i = 0; i < voters.length; i++)\n            if (voters[i] == msg.sender) {\n                return i;\n            }\n\n        return MAX_VOTERS + 1;\n    }\n\n    function results(uint256 _voteId) public view returns(bytes32) {\n        Vote storage vote = votes[_voteId];\n        uint256[] memory result = new uint256[](vote.answers.length);\n\n        for (uint256 i = 0; i < vote.voters.length; i++) {\n            result[vote.voterToAnswer[i]]++;\n        }\n\n        uint256 maxId = 0;\n        uint256 max = result[0];\n\n        for (i = 0; i < result.length; i++) {\n            if (result[i] > max) {\n                maxId = i;\n                max = result[i];\n            }\n        }\n\n        return vote.answers[maxId];\n    }\n\n    function isStopped(uint256 _voteId) external view returns(bool) {\n        return votes[_voteId].state == State.Stopped;\n    }\n\n    /*\n    * GETTERS\n    */\n\n    function getVote(uint256 _voteId) public view returns(State, string, bytes32[], int256[]) {\n        Vote storage vote = votes[_voteId];\n        int256[] memory res = new int256[](vote.answers.length);\n\n        for (uint256 i = 0; i < vote.voters.length; i++) {\n            res[vote.voterToAnswer[i]] += 1;\n        }\n\n        return (vote.state, vote.question, vote.answers, res);\n    }\n\n}\n",
  "sourcePath": "/Users/alexey/Projects/SmartVote/contracts/VoteFactory.sol",
  "compiler": {
    "name": "solc",
    "version": "0.4.24+commit.e67f0147.Emscripten.clang"
  },
  "schemaVersion": "2.0.1",
  "updatedAt": "2018-08-30T04:46:01.163Z"
}